{
  "contractName": "Bridge",
  "abi": [
    {
      "anonymous": false,
      "inputs": [
        {
          "indexed": false,
          "internalType": "address",
          "name": "previousAdmin",
          "type": "address"
        },
        {
          "indexed": false,
          "internalType": "address",
          "name": "newAdmin",
          "type": "address"
        }
      ],
      "name": "AdminChanged",
      "type": "event"
    },
    {
      "anonymous": false,
      "inputs": [
        {
          "indexed": true,
          "internalType": "address",
          "name": "beacon",
          "type": "address"
        }
      ],
      "name": "BeaconUpgraded",
      "type": "event"
    },
    {
      "anonymous": false,
      "inputs": [
        {
          "indexed": true,
          "internalType": "address",
          "name": "oldContract",
          "type": "address"
        },
        {
          "indexed": true,
          "internalType": "address",
          "name": "newContract",
          "type": "address"
        }
      ],
      "name": "ContractUpgraded",
      "type": "event"
    },
    {
      "anonymous": false,
      "inputs": [
        {
          "indexed": true,
          "internalType": "address",
          "name": "implementation",
          "type": "address"
        }
      ],
      "name": "Upgraded",
      "type": "event"
    },
    {
      "inputs": [],
      "name": "WETH",
      "outputs": [
        {
          "internalType": "contract IWETH",
          "name": "",
          "type": "address"
        }
      ],
      "stateMutability": "view",
      "type": "function"
    },
    {
      "inputs": [
        {
          "internalType": "uint16",
          "name": "chainId_",
          "type": "uint16"
        }
      ],
      "name": "bridgeContracts",
      "outputs": [
        {
          "internalType": "bytes32",
          "name": "",
          "type": "bytes32"
        }
      ],
      "stateMutability": "view",
      "type": "function"
    },
    {
      "inputs": [],
      "name": "chainId",
      "outputs": [
        {
          "internalType": "uint16",
          "name": "",
          "type": "uint16"
        }
      ],
      "stateMutability": "view",
      "type": "function"
    },
    {
      "inputs": [],
      "name": "evmChainId",
      "outputs": [
        {
          "internalType": "uint256",
          "name": "",
          "type": "uint256"
        }
      ],
      "stateMutability": "view",
      "type": "function"
    },
    {
      "inputs": [],
      "name": "finality",
      "outputs": [
        {
          "internalType": "uint8",
          "name": "",
          "type": "uint8"
        }
      ],
      "stateMutability": "view",
      "type": "function"
    },
    {
      "inputs": [
        {
          "internalType": "bytes32",
          "name": "hash",
          "type": "bytes32"
        }
      ],
      "name": "governanceActionIsConsumed",
      "outputs": [
        {
          "internalType": "bool",
          "name": "",
          "type": "bool"
        }
      ],
      "stateMutability": "view",
      "type": "function"
    },
    {
      "inputs": [],
      "name": "governanceChainId",
      "outputs": [
        {
          "internalType": "uint16",
          "name": "",
          "type": "uint16"
        }
      ],
      "stateMutability": "view",
      "type": "function"
    },
    {
      "inputs": [],
      "name": "governanceContract",
      "outputs": [
        {
          "internalType": "bytes32",
          "name": "",
          "type": "bytes32"
        }
      ],
      "stateMutability": "view",
      "type": "function"
    },
    {
      "inputs": [],
      "name": "isFork",
      "outputs": [
        {
          "internalType": "bool",
          "name": "",
          "type": "bool"
        }
      ],
      "stateMutability": "view",
      "type": "function"
    },
    {
      "inputs": [
        {
          "internalType": "address",
          "name": "impl",
          "type": "address"
        }
      ],
      "name": "isInitialized",
      "outputs": [
        {
          "internalType": "bool",
          "name": "",
          "type": "bool"
        }
      ],
      "stateMutability": "view",
      "type": "function"
    },
    {
      "inputs": [
        {
          "internalType": "bytes32",
          "name": "hash",
          "type": "bytes32"
        }
      ],
      "name": "isTransferCompleted",
      "outputs": [
        {
          "internalType": "bool",
          "name": "",
          "type": "bool"
        }
      ],
      "stateMutability": "view",
      "type": "function"
    },
    {
      "inputs": [
        {
          "internalType": "address",
          "name": "token",
          "type": "address"
        }
      ],
      "name": "isWrappedAsset",
      "outputs": [
        {
          "internalType": "bool",
          "name": "",
          "type": "bool"
        }
      ],
      "stateMutability": "view",
      "type": "function"
    },
    {
      "inputs": [
        {
          "internalType": "address",
          "name": "token",
          "type": "address"
        }
      ],
      "name": "outstandingBridged",
      "outputs": [
        {
          "internalType": "uint256",
          "name": "",
          "type": "uint256"
        }
      ],
      "stateMutability": "view",
      "type": "function"
    },
    {
      "inputs": [
        {
          "internalType": "bytes",
          "name": "encodedRecoverChainId",
          "type": "bytes"
        }
      ],
      "name": "parseRecoverChainId",
      "outputs": [
        {
          "components": [
            {
              "internalType": "bytes32",
              "name": "module",
              "type": "bytes32"
            },
            {
              "internalType": "uint8",
              "name": "action",
              "type": "uint8"
            },
            {
              "internalType": "uint256",
              "name": "evmChainId",
              "type": "uint256"
            },
            {
              "internalType": "uint16",
              "name": "newChainId",
              "type": "uint16"
            }
          ],
          "internalType": "struct BridgeStructs.RecoverChainId",
          "name": "rci",
          "type": "tuple"
        }
      ],
      "stateMutability": "pure",
      "type": "function"
    },
    {
      "inputs": [
        {
          "internalType": "bytes",
          "name": "encoded",
          "type": "bytes"
        }
      ],
      "name": "parseRegisterChain",
      "outputs": [
        {
          "components": [
            {
              "internalType": "bytes32",
              "name": "module",
              "type": "bytes32"
            },
            {
              "internalType": "uint8",
              "name": "action",
              "type": "uint8"
            },
            {
              "internalType": "uint16",
              "name": "chainId",
              "type": "uint16"
            },
            {
              "internalType": "uint16",
              "name": "emitterChainID",
              "type": "uint16"
            },
            {
              "internalType": "bytes32",
              "name": "emitterAddress",
              "type": "bytes32"
            }
          ],
          "internalType": "struct BridgeStructs.RegisterChain",
          "name": "chain",
          "type": "tuple"
        }
      ],
      "stateMutability": "pure",
      "type": "function"
    },
    {
      "inputs": [
        {
          "internalType": "bytes",
          "name": "encoded",
          "type": "bytes"
        }
      ],
      "name": "parseUpgrade",
      "outputs": [
        {
          "components": [
            {
              "internalType": "bytes32",
              "name": "module",
              "type": "bytes32"
            },
            {
              "internalType": "uint8",
              "name": "action",
              "type": "uint8"
            },
            {
              "internalType": "uint16",
              "name": "chainId",
              "type": "uint16"
            },
            {
              "internalType": "bytes32",
              "name": "newContract",
              "type": "bytes32"
            }
          ],
          "internalType": "struct BridgeStructs.UpgradeContract",
          "name": "chain",
          "type": "tuple"
        }
      ],
      "stateMutability": "pure",
      "type": "function"
    },
    {
      "inputs": [
        {
          "internalType": "bytes",
          "name": "encodedVM",
          "type": "bytes"
        }
      ],
      "name": "registerChain",
      "outputs": [],
      "stateMutability": "nonpayable",
      "type": "function"
    },
    {
      "inputs": [
        {
          "internalType": "bytes",
          "name": "encodedVM",
          "type": "bytes"
        }
      ],
      "name": "submitRecoverChainId",
      "outputs": [],
      "stateMutability": "nonpayable",
      "type": "function"
    },
    {
      "inputs": [],
      "name": "tokenImplementation",
      "outputs": [
        {
          "internalType": "address",
          "name": "",
          "type": "address"
        }
      ],
      "stateMutability": "view",
      "type": "function"
    },
    {
      "inputs": [
        {
          "internalType": "bytes",
          "name": "encodedVM",
          "type": "bytes"
        }
      ],
      "name": "upgrade",
      "outputs": [],
      "stateMutability": "nonpayable",
      "type": "function"
    },
    {
      "inputs": [],
      "name": "wormhole",
      "outputs": [
        {
          "internalType": "contract IWormhole",
          "name": "",
          "type": "address"
        }
      ],
      "stateMutability": "view",
      "type": "function"
    },
    {
      "inputs": [
        {
          "internalType": "uint16",
          "name": "tokenChainId",
          "type": "uint16"
        },
        {
          "internalType": "bytes32",
          "name": "tokenAddress",
          "type": "bytes32"
        }
      ],
      "name": "wrappedAsset",
      "outputs": [
        {
          "internalType": "address",
          "name": "",
          "type": "address"
        }
      ],
      "stateMutability": "view",
      "type": "function"
    },
    {
      "stateMutability": "payable",
      "type": "receive"
    },
    {
      "inputs": [
        {
          "internalType": "address",
          "name": "tokenAddress",
          "type": "address"
        },
        {
          "internalType": "uint32",
          "name": "nonce",
          "type": "uint32"
        }
      ],
      "name": "attestToken",
      "outputs": [
        {
          "internalType": "uint64",
          "name": "sequence",
          "type": "uint64"
        }
      ],
      "stateMutability": "payable",
      "type": "function"
    },
    {
      "inputs": [
        {
          "internalType": "uint16",
          "name": "recipientChain",
          "type": "uint16"
        },
        {
          "internalType": "bytes32",
          "name": "recipient",
          "type": "bytes32"
        },
        {
          "internalType": "uint256",
          "name": "arbiterFee",
          "type": "uint256"
        },
        {
          "internalType": "uint32",
          "name": "nonce",
          "type": "uint32"
        }
      ],
      "name": "wrapAndTransferETH",
      "outputs": [
        {
          "internalType": "uint64",
          "name": "sequence",
          "type": "uint64"
        }
      ],
      "stateMutability": "payable",
      "type": "function"
    },
    {
      "inputs": [
        {
          "internalType": "uint16",
          "name": "recipientChain",
          "type": "uint16"
        },
        {
          "internalType": "bytes32",
          "name": "recipient",
          "type": "bytes32"
        },
        {
          "internalType": "uint32",
          "name": "nonce",
          "type": "uint32"
        },
        {
          "internalType": "bytes",
          "name": "payload",
          "type": "bytes"
        }
      ],
      "name": "wrapAndTransferETHWithPayload",
      "outputs": [
        {
          "internalType": "uint64",
          "name": "sequence",
          "type": "uint64"
        }
      ],
      "stateMutability": "payable",
      "type": "function"
    },
    {
      "inputs": [
        {
          "internalType": "address",
          "name": "token",
          "type": "address"
        },
        {
          "internalType": "uint256",
          "name": "amount",
          "type": "uint256"
        },
        {
          "internalType": "uint16",
          "name": "recipientChain",
          "type": "uint16"
        },
        {
          "internalType": "bytes32",
          "name": "recipient",
          "type": "bytes32"
        },
        {
          "internalType": "uint256",
          "name": "arbiterFee",
          "type": "uint256"
        },
        {
          "internalType": "uint32",
          "name": "nonce",
          "type": "uint32"
        }
      ],
      "name": "transferTokens",
      "outputs": [
        {
          "internalType": "uint64",
          "name": "sequence",
          "type": "uint64"
        }
      ],
      "stateMutability": "payable",
      "type": "function"
    },
    {
      "inputs": [
        {
          "internalType": "address",
          "name": "token",
          "type": "address"
        },
        {
          "internalType": "uint256",
          "name": "amount",
          "type": "uint256"
        },
        {
          "internalType": "uint16",
          "name": "recipientChain",
          "type": "uint16"
        },
        {
          "internalType": "bytes32",
          "name": "recipient",
          "type": "bytes32"
        },
        {
          "internalType": "uint32",
          "name": "nonce",
          "type": "uint32"
        },
        {
          "internalType": "bytes",
          "name": "payload",
          "type": "bytes"
        }
      ],
      "name": "transferTokensWithPayload",
      "outputs": [
        {
          "internalType": "uint64",
          "name": "sequence",
          "type": "uint64"
        }
      ],
      "stateMutability": "payable",
      "type": "function"
    },
    {
      "inputs": [
        {
          "internalType": "bytes",
          "name": "encodedVm",
          "type": "bytes"
        }
      ],
      "name": "updateWrapped",
      "outputs": [
        {
          "internalType": "address",
          "name": "token",
          "type": "address"
        }
      ],
      "stateMutability": "nonpayable",
      "type": "function"
    },
    {
      "inputs": [
        {
          "internalType": "bytes",
          "name": "encodedVm",
          "type": "bytes"
        }
      ],
      "name": "createWrapped",
      "outputs": [
        {
          "internalType": "address",
          "name": "token",
          "type": "address"
        }
      ],
      "stateMutability": "nonpayable",
      "type": "function"
    },
    {
      "inputs": [
        {
          "internalType": "bytes",
          "name": "encodedVm",
          "type": "bytes"
        }
      ],
      "name": "completeTransferWithPayload",
      "outputs": [
        {
          "internalType": "bytes",
          "name": "",
          "type": "bytes"
        }
      ],
      "stateMutability": "nonpayable",
      "type": "function"
    },
    {
      "inputs": [
        {
          "internalType": "bytes",
          "name": "encodedVm",
          "type": "bytes"
        }
      ],
      "name": "completeTransferAndUnwrapETHWithPayload",
      "outputs": [
        {
          "internalType": "bytes",
          "name": "",
          "type": "bytes"
        }
      ],
      "stateMutability": "nonpayable",
      "type": "function"
    },
    {
      "inputs": [
        {
          "internalType": "bytes",
          "name": "encodedVm",
          "type": "bytes"
        }
      ],
      "name": "completeTransfer",
      "outputs": [],
      "stateMutability": "nonpayable",
      "type": "function"
    },
    {
      "inputs": [
        {
          "internalType": "bytes",
          "name": "encodedVm",
          "type": "bytes"
        }
      ],
      "name": "completeTransferAndUnwrapETH",
      "outputs": [],
      "stateMutability": "nonpayable",
      "type": "function"
    },
    {
      "inputs": [
        {
          "components": [
            {
              "internalType": "uint8",
              "name": "payloadID",
              "type": "uint8"
            },
            {
              "internalType": "bytes32",
              "name": "tokenAddress",
              "type": "bytes32"
            },
            {
              "internalType": "uint16",
              "name": "tokenChain",
              "type": "uint16"
            },
            {
              "internalType": "uint8",
              "name": "decimals",
              "type": "uint8"
            },
            {
              "internalType": "bytes32",
              "name": "symbol",
              "type": "bytes32"
            },
            {
              "internalType": "bytes32",
              "name": "name",
              "type": "bytes32"
            }
          ],
          "internalType": "struct BridgeStructs.AssetMeta",
          "name": "meta",
          "type": "tuple"
        }
      ],
      "name": "encodeAssetMeta",
      "outputs": [
        {
          "internalType": "bytes",
          "name": "encoded",
          "type": "bytes"
        }
      ],
      "stateMutability": "pure",
      "type": "function"
    },
    {
      "inputs": [
        {
          "components": [
            {
              "internalType": "uint8",
              "name": "payloadID",
              "type": "uint8"
            },
            {
              "internalType": "uint256",
              "name": "amount",
              "type": "uint256"
            },
            {
              "internalType": "bytes32",
              "name": "tokenAddress",
              "type": "bytes32"
            },
            {
              "internalType": "uint16",
              "name": "tokenChain",
              "type": "uint16"
            },
            {
              "internalType": "bytes32",
              "name": "to",
              "type": "bytes32"
            },
            {
              "internalType": "uint16",
              "name": "toChain",
              "type": "uint16"
            },
            {
              "internalType": "uint256",
              "name": "fee",
              "type": "uint256"
            }
          ],
          "internalType": "struct BridgeStructs.Transfer",
          "name": "transfer",
          "type": "tuple"
        }
      ],
      "name": "encodeTransfer",
      "outputs": [
        {
          "internalType": "bytes",
          "name": "encoded",
          "type": "bytes"
        }
      ],
      "stateMutability": "pure",
      "type": "function"
    },
    {
      "inputs": [
        {
          "components": [
            {
              "internalType": "uint8",
              "name": "payloadID",
              "type": "uint8"
            },
            {
              "internalType": "uint256",
              "name": "amount",
              "type": "uint256"
            },
            {
              "internalType": "bytes32",
              "name": "tokenAddress",
              "type": "bytes32"
            },
            {
              "internalType": "uint16",
              "name": "tokenChain",
              "type": "uint16"
            },
            {
              "internalType": "bytes32",
              "name": "to",
              "type": "bytes32"
            },
            {
              "internalType": "uint16",
              "name": "toChain",
              "type": "uint16"
            },
            {
              "internalType": "bytes32",
              "name": "fromAddress",
              "type": "bytes32"
            },
            {
              "internalType": "bytes",
              "name": "payload",
              "type": "bytes"
            }
          ],
          "internalType": "struct BridgeStructs.TransferWithPayload",
          "name": "transfer",
          "type": "tuple"
        }
      ],
      "name": "encodeTransferWithPayload",
      "outputs": [
        {
          "internalType": "bytes",
          "name": "encoded",
          "type": "bytes"
        }
      ],
      "stateMutability": "pure",
      "type": "function"
    },
    {
      "inputs": [
        {
          "internalType": "bytes",
          "name": "encoded",
          "type": "bytes"
        }
      ],
      "name": "parsePayloadID",
      "outputs": [
        {
          "internalType": "uint8",
          "name": "payloadID",
          "type": "uint8"
        }
      ],
      "stateMutability": "pure",
      "type": "function"
    },
    {
      "inputs": [
        {
          "internalType": "bytes",
          "name": "encoded",
          "type": "bytes"
        }
      ],
      "name": "parseAssetMeta",
      "outputs": [
        {
          "components": [
            {
              "internalType": "uint8",
              "name": "payloadID",
              "type": "uint8"
            },
            {
              "internalType": "bytes32",
              "name": "tokenAddress",
              "type": "bytes32"
            },
            {
              "internalType": "uint16",
              "name": "tokenChain",
              "type": "uint16"
            },
            {
              "internalType": "uint8",
              "name": "decimals",
              "type": "uint8"
            },
            {
              "internalType": "bytes32",
              "name": "symbol",
              "type": "bytes32"
            },
            {
              "internalType": "bytes32",
              "name": "name",
              "type": "bytes32"
            }
          ],
          "internalType": "struct BridgeStructs.AssetMeta",
          "name": "meta",
          "type": "tuple"
        }
      ],
      "stateMutability": "pure",
      "type": "function"
    },
    {
      "inputs": [
        {
          "internalType": "bytes",
          "name": "encoded",
          "type": "bytes"
        }
      ],
      "name": "parseTransfer",
      "outputs": [
        {
          "components": [
            {
              "internalType": "uint8",
              "name": "payloadID",
              "type": "uint8"
            },
            {
              "internalType": "uint256",
              "name": "amount",
              "type": "uint256"
            },
            {
              "internalType": "bytes32",
              "name": "tokenAddress",
              "type": "bytes32"
            },
            {
              "internalType": "uint16",
              "name": "tokenChain",
              "type": "uint16"
            },
            {
              "internalType": "bytes32",
              "name": "to",
              "type": "bytes32"
            },
            {
              "internalType": "uint16",
              "name": "toChain",
              "type": "uint16"
            },
            {
              "internalType": "uint256",
              "name": "fee",
              "type": "uint256"
            }
          ],
          "internalType": "struct BridgeStructs.Transfer",
          "name": "transfer",
          "type": "tuple"
        }
      ],
      "stateMutability": "pure",
      "type": "function"
    },
    {
      "inputs": [
        {
          "internalType": "bytes",
          "name": "encoded",
          "type": "bytes"
        }
      ],
      "name": "parseTransferWithPayload",
      "outputs": [
        {
          "components": [
            {
              "internalType": "uint8",
              "name": "payloadID",
              "type": "uint8"
            },
            {
              "internalType": "uint256",
              "name": "amount",
              "type": "uint256"
            },
            {
              "internalType": "bytes32",
              "name": "tokenAddress",
              "type": "bytes32"
            },
            {
              "internalType": "uint16",
              "name": "tokenChain",
              "type": "uint16"
            },
            {
              "internalType": "bytes32",
              "name": "to",
              "type": "bytes32"
            },
            {
              "internalType": "uint16",
              "name": "toChain",
              "type": "uint16"
            },
            {
              "internalType": "bytes32",
              "name": "fromAddress",
              "type": "bytes32"
            },
            {
              "internalType": "bytes",
              "name": "payload",
              "type": "bytes"
            }
          ],
          "internalType": "struct BridgeStructs.TransferWithPayload",
          "name": "transfer",
          "type": "tuple"
        }
      ],
      "stateMutability": "pure",
      "type": "function"
    },
    {
      "inputs": [
        {
          "internalType": "bytes",
          "name": "encoded",
          "type": "bytes"
        }
      ],
      "name": "_parseTransferCommon",
      "outputs": [
        {
          "components": [
            {
              "internalType": "uint8",
              "name": "payloadID",
              "type": "uint8"
            },
            {
              "internalType": "uint256",
              "name": "amount",
              "type": "uint256"
            },
            {
              "internalType": "bytes32",
              "name": "tokenAddress",
              "type": "bytes32"
            },
            {
              "internalType": "uint16",
              "name": "tokenChain",
              "type": "uint16"
            },
            {
              "internalType": "bytes32",
              "name": "to",
              "type": "bytes32"
            },
            {
              "internalType": "uint16",
              "name": "toChain",
              "type": "uint16"
            },
            {
              "internalType": "uint256",
              "name": "fee",
              "type": "uint256"
            }
          ],
          "internalType": "struct BridgeStructs.Transfer",
          "name": "transfer",
          "type": "tuple"
        }
      ],
      "stateMutability": "pure",
      "type": "function"
    }
  ],
  "bytecode": "0x608060405234801561001057600080fd5b506001600d55615ae3806100256000396000f3fe6080604052600436106200027b5760003560e01c8063ad5c46481162000153578063cb4cfea811620000c5578063e89bc4011162000084578063e89bc401146200094e578063ea63738d1462000973578063f768441f14620009a7578063fbe3c2cd14620009cc578063fbeeacd914620009ed578063ff200cde1462000a4d57600080fd5b8063cb4cfea8146200084f578063d56e2e2414620008af578063d60b347f14620008d4578063e039f2241462000911578063e8059810146200092957600080fd5b8063bee9cdfc1162000112578063bee9cdfc14620007c0578063c3f511c114620007d7578063c48fa11514620007fc578063c5a5ebda1462000813578063c6878519146200082a57600080fd5b8063ad5c464814620006f5578063ad66a5f11462000715578063b046223b146200074a578063b172b222146200076f578063b96c7e4d146200078657600080fd5b80632c3c02a411620001ed57806384acd1bb11620001ac57806384acd1bb146200063b5780639981509f146200065b5780639a8a05921462000672578063a5799f93146200069c578063aa4efa5b14620006c157600080fd5b80632c3c02a4146200057f5780632f3a3d5d14620005b35780635f85426614620005d357806364d42b1714620005f8578063739fc8d1146200061957600080fd5b80631a2be4da116200023a5780631a2be4da14620004115780631c8475e4146200045f5780631ff1e28614620004935780632539464514620004d15780632b51137514620004f657600080fd5b806301f53255146200028857806307dfd8fb14620003065780630f50900814620003825780630f5287b014620003ba578063178149e714620003ea57600080fd5b366200028357005b600080fd5b3480156200029557600080fd5b50620002ad620002a7366004620045b9565b62000a72565b604051620002fd9190600060a0820190508251825260ff6020840151166020830152604083015161ffff808216604085015280606086015116606085015250506080830151608083015292915050565b60405180910390f35b3480156200031357600080fd5b506200032b62000325366004620045b9565b62000bee565b604051620002fd9190600060c08201905060ff83511682526020830151602083015261ffff604084015116604083015260ff60608401511660608301526080830151608083015260a083015160a083015292915050565b3480156200038f57600080fd5b50620003a7620003a1366004620045b9565b62000d7d565b60405160ff9091168152602001620002fd565b620003d1620003cb36600462004438565b62000d91565b6040516001600160401b039091168152602001620002fd565b348015620003f757600080fd5b506200040f62000409366004620045b9565b62000e35565b005b3480156200041e57600080fd5b506200044e620004303660046200441b565b6001600160a01b031660009081526009602052604090205460ff1690565b6040519015158152602001620002fd565b3480156200046c57600080fd5b50620004846200047e366004620045b9565b62000f51565b604051620002fd919062004c1d565b348015620004a057600080fd5b50620004b8620004b2366004620049e3565b62000f60565b6040516001600160a01b039091168152602001620002fd565b348015620004de57600080fd5b506200040f620004f0366004620045b9565b62000f8c565b3480156200050357600080fd5b506200051b62000515366004620045b9565b6200109c565b604051620002fd9190600060e08201905060ff83511682526020830151602083015260408301516040830152606083015161ffff8082166060850152608085015160808501528060a08601511660a0850152505060c083015160c083015292915050565b3480156200058c57600080fd5b506200044e6200059e36600462004587565b60009081526005602052604090205460ff1690565b348015620005c057600080fd5b506001546001600160a01b0316620004b8565b348015620005e057600080fd5b5062000484620005f236600462004791565b6200120d565b3480156200060557600080fd5b50600c545b604051908152602001620002fd565b3480156200062657600080fd5b50600254640100000000900460ff16620003a7565b3480156200064857600080fd5b506000546001600160a01b0316620004b8565b620003d16200066c36600462004a11565b620012a2565b3480156200067f57600080fd5b5060025461ffff165b60405161ffff9091168152602001620002fd565b348015620006a957600080fd5b506200040f620006bb366004620045b9565b620012e2565b348015620006ce57600080fd5b506200044e620006e036600462004587565b60009081526006602052604090205460ff1690565b3480156200070257600080fd5b506004546001600160a01b0316620004b8565b3480156200072257600080fd5b506200060a62000734366004620049a5565b61ffff166000908152600b602052604090205490565b3480156200075757600080fd5b50620004846200076936600462004625565b6200144e565b3480156200077c57600080fd5b506003546200060a565b3480156200079357600080fd5b506200060a620007a53660046200441b565b6001600160a01b03166000908152600a602052604090205490565b620003d1620007d136600462004a5f565b620014c7565b348015620007e457600080fd5b5062000484620007f6366004620045b9565b620014fa565b620003d16200080d3660046200452f565b62001509565b620003d162000824366004620044a3565b6200182e565b3480156200083757600080fd5b506200040f62000849366004620045b9565b620018bd565b3480156200085c57600080fd5b50620008746200086e366004620045b9565b620018ce565b604051620002fd91908151815260208083015160ff16908201526040808301519082015260609182015161ffff169181019190915260800190565b348015620008bc57600080fd5b5062000484620008ce366004620046bf565b620019cd565b348015620008e157600080fd5b506200044e620008f33660046200441b565b6001600160a01b031660009081526007602052604090205460ff1690565b3480156200091e57600080fd5b506200044e62001a10565b3480156200093657600080fd5b50620004b862000948366004620045b9565b62001a24565b3480156200095b57600080fd5b506200051b6200096d366004620045b9565b62001b39565b3480156200098057600080fd5b506200099862000992366004620045b9565b62001c45565b604051620002fd919062004d81565b348015620009b457600080fd5b50620004b8620009c6366004620045b9565b62001dc2565b348015620009d957600080fd5b5060025462010000900461ffff1662000688565b348015620009fa57600080fd5b5062000a1262000a0c366004620045b9565b62001ed7565b604051620002fd91908151815260208083015160ff169082015260408083015161ffff16908201526060918201519181019190915260800190565b34801562000a5a57600080fd5b506200040f62000a6c366004620045b9565b62001fd6565b6040805160a08101825260008082526020820181905291810182905260608101829052608081018290529062000aa9838262001fe3565b825262000ab860208262004f04565b82519091506a546f6b656e4272696467651462000af25760405162461bcd60e51b815260040162000ae99062004d35565b60405180910390fd5b62000afe838262002045565b60ff16602083015262000b1360018262004f04565b9050816020015160ff1660011462000b3f5760405162461bcd60e51b815260040162000ae99062004d5b565b62000b4b8382620020a5565b61ffff16604083015262000b6160028262004f04565b905062000b6f8382620020a5565b61ffff16606083015262000b8560028262004f04565b905062000b93838262001fe3565b608083015262000ba560208262004f04565b90508083511462000be85760405162461bcd60e51b815260206004820152600c60248201526b0eee4dedcce40d8cadccee8d60a31b604482015260640162000ae9565b50919050565b6040805160c081018252600080825260208201819052918101829052606081018290526080810182905260a081018290529062000c2c838262002045565b60ff16825262000c3e60018262004f04565b9050816000015160ff1660021462000c8d5760405162461bcd60e51b8152602060048201526011602482015270696e76616c69642041737365744d65746160781b604482015260640162000ae9565b62000c99838262001fe3565b60208084019190915262000cae908262004f04565b905062000cbc8382620020a5565b61ffff16604083015262000cd260028262004f04565b905062000ce0838262002045565b60ff16606083015262000cf560018262004f04565b905062000d03838262001fe3565b608083015262000d1560208262004f04565b905062000d23838262001fe3565b60a083015262000d3560208262004f04565b90508083511462000be85760405162461bcd60e51b8152602060048201526011602482015270696e76616c69642041737365744d65746160781b604482015260640162000ae9565b600062000d8b828262002045565b92915050565b60006002600d54141562000de85760405162461bcd60e51b815260206004820152601f60248201527f5265656e7472616e637947756172643a207265656e7472616e742063616c6c00604482015260640162000ae9565b6002600d55600062000dfc88888662002106565b905062000e248160000151826020015183604001518989866060015187608001518a620025b6565b6001600d5598975050505050505050565b62000e3f62001a10565b62000e7a5760405162461bcd60e51b815260206004820152600a6024820152696e6f74206120666f726b60b01b604482015260640162000ae9565b600080600062000e8a84620026ea565b92509250925081819062000eb35760405162461bcd60e51b815260040162000ae9919062004c1d565b5062000ec483610140015162002919565b600062000ed58460e00151620018ce565b90504681604001511462000f205760405162461bcd60e51b815260206004820152601160248201527034b73b30b634b21022ab269021b430b4b760791b604482015260640162000ae9565b62000f2f816040015162002934565b60608101516002805461ffff191661ffff9092169190911790555b5050505050565b606062000d8b8260016200297f565b61ffff91909116600090815260086020908152604080832093835292905220546001600160a01b031690565b62000f9662001a10565b1562000fd45760405162461bcd60e51b815260206004820152600c60248201526b696e76616c696420666f726b60a01b604482015260640162000ae9565b600080600062000fe484620026ea565b9250925092508181906200100d5760405162461bcd60e51b815260040162000ae9919062004c1d565b506200101e83610140015162002919565b60006200102f8460e0015162001ed7565b90506200103f60025461ffff1690565b61ffff16816040015161ffff16146200108c5760405162461bcd60e51b815260206004820152600e60248201526d1ddc9bdb99c818da185a5b881a5960921b604482015260640162000ae9565b606081015162000f4a90620030f2565b6040805160e081018252600080825260208201819052918101829052606081018290526080810182905260a0810182905260c0810182905290620010e1838262002045565b60ff168252620010f360018262004f04565b9050816000015160ff166001146200111f5760405162461bcd60e51b815260040162000ae99062004d0b565b6200112b838262003229565b60208084019190915262001140908262004f04565b90506200114e838262001fe3565b60408301526200116060208262004f04565b90506200116e8382620020a5565b61ffff1660608301526200118460028262004f04565b905062001192838262001fe3565b6080830152620011a460208262004f04565b9050620011b28382620020a5565b61ffff1660a0830152620011c860028262004f04565b9050620011d6838262003229565b60c0830152620011e860208262004f04565b90508083511462000be85760405162461bcd60e51b815260040162000ae99062004d0b565b8051602080830151604080850151606080870151608088015160a089015160c08a0151955160f89990991b6001600160f81b031916978901979097526021880195909552604187019290925260f091821b6001600160f01b03199081166061880152606387019490945293901b909116608384015260858301529060a5015b6040516020818303038152906040529050919050565b600080620012b08462003282565b9050620012d88160000151826020015183604001518989866060015187608001518a620025b6565b9695505050505050565b6000806000620012f284620026ea565b9250925092508181906200131b5760405162461bcd60e51b815260040162000ae9919062004c1d565b506200132c83610140015162002919565b60006200133d8460e0015162000a72565b90506200134d60025461ffff1690565b61ffff16816040015161ffff161480156200136f57506200136d62001a10565b155b80620013815750604081015161ffff16155b620013c25760405162461bcd60e51b815260206004820152601060248201526f1a5b9d985b1a590818da185a5b881a5960821b604482015260640162000ae9565b606081015161ffff166000908152600b602052604081205414620014295760405162461bcd60e51b815260206004820152601860248201527f636861696e20616c726561647920726567697374657265640000000000000000604482015260640162000ae9565b62000f4a8160600151826080015161ffff9091166000908152600b6020526040902055565b8051602080830151604080850151606080870151608088015160a0890151945160f898891b6001600160f81b031990811698820198909852602181019690965260f09390931b6001600160f01b031916604186015290951b9093166043830152604482019290925260648101919091526084016200128c565b600080620014d6600062003282565b9050620012d8816000015182602001518360400151898986608001518a8a6200355c565b606062000d8b8260006200297f565b60408051600481526024810182526020810180516001600160e01b031663313ce56760e01b179052905160009182916001600160a01b038616916200154e9162004b3a565b600060405180830381855afa9150503d80600081146200158b576040519150601f19603f3d011682016040523d82523d6000602084013e62001590565b606091505b5060408051600481526024810182526020810180516001600160e01b03166395d89b4160e01b1790529051919350600092506001600160a01b03871691620015d9919062004b3a565b600060405180830381855afa9150503d806000811462001616576040519150601f19603f3d011682016040523d82523d6000602084013e6200161b565b606091505b5060408051600481526024810182526020810180516001600160e01b03166306fdde0360e01b1790529051919350600092506001600160a01b0388169162001664919062004b3a565b600060405180830381855afa9150503d8060008114620016a1576040519150601f19603f3d011682016040523d82523d6000602084013e620016a6565b606091505b50915050600083806020019051810190620016c2919062004aed565b9050600083806020019051810190620016dc9190620045ef565b9050600083806020019051810190620016f69190620045ef565b9050600080602084015191506020830151905060006040518060c00160405280600260ff1681526020018d6001600160a01b031660001b81526020016200174060025461ffff1690565b61ffff1681526020018760ff16815260200184815260200183815250905060006200176b826200144e565b9050620017806000546001600160a01b031690565b6001600160a01b031663b19a437e348e84620017a760025460ff6401000000009091041690565b6040518563ffffffff1660e01b8152600401620017c79392919062004dfc565b6020604051808303818588803b158015620017e157600080fd5b505af1158015620017f6573d6000803e3d6000fd5b50505050506040513d601f19601f820116820180604052508101906200181d919062004ad0565b9d9c50505050505050505050505050565b60006002600d541415620018855760405162461bcd60e51b815260206004820152601f60248201527f5265656e7472616e637947756172643a207265656e7472616e742063616c6c00604482015260640162000ae9565b6002600d5560006200189988888362002106565b905062000e24816000015182602001518360400151898986608001518a8a6200355c565b620018ca8160006200297f565b5050565b604080516080810182526000808252602082018190529181018290526060810182905290620018fe838262001fe3565b82526200190d60208262004f04565b82519091506a546f6b656e427269646765146200193e5760405162461bcd60e51b815260040162000ae99062004d35565b6200194a838262002045565b60ff1660208301526200195f60018262004f04565b9050816020015160ff166003146200198b5760405162461bcd60e51b815260040162000ae99062004d5b565b62001997838262003229565b6040830152620019a960208262004f04565b9050620019b78382620020a5565b61ffff16606083015262000ba560028262004f04565b6060816000015182602001518360400151846060015185608001518660a001518760c001518860e001516040516020016200128c98979695949392919062004b8b565b60004662001a1d600c5490565b1415905090565b60008060008062001a3d6000546001600160a01b031690565b6001600160a01b031663c0fd8bde866040518263ffffffff1660e01b815260040162001a6a919062004c1d565b60006040518083038186803b15801562001a8357600080fd5b505afa15801562001a98573d6000803e3d6000fd5b505050506040513d6000823e601f3d908101601f1916820160405262001ac2919081019062004836565b92509250925081819062001aeb5760405162461bcd60e51b815260040162000ae9919062004c1d565b5062001af783620035cf565b62001b165760405162461bcd60e51b815260040162000ae99062004ce2565b600062001b278460e0015162000bee565b9050620012d8818560a001516200363c565b6040805160e081018252600080825260208201819052918101829052606081018290526080810182905260a0810182905260c081018290529062001b7d8362000d7d565b90508060ff166001141562001b9f5762001b97836200109c565b915062000be8565b8060ff166003141562001c0757600062001bb98462001c45565b60038452602080820151908501526040808201519085015260608082015161ffff908116918601919091526080808301519086015260a091820151169084015250600060c083015262000be8565b60405162461bcd60e51b8152602060048201526012602482015271125b9d985b1a59081c185e5b1bd859081a5960721b604482015260640162000ae9565b604080516101008101825260008082526020820181905291810182905260608082018390526080820183905260a0820183905260c0820183905260e08201529062001c91838262002045565b60ff16825262001ca360018262004f04565b9050816000015160ff1660031462001ccf5760405162461bcd60e51b815260040162000ae99062004d0b565b62001cdb838262003229565b60208084019190915262001cf0908262004f04565b905062001cfe838262001fe3565b604083015262001d1060208262004f04565b905062001d1e8382620020a5565b61ffff16606083015262001d3460028262004f04565b905062001d42838262001fe3565b608083015262001d5460208262004f04565b905062001d628382620020a5565b61ffff1660a083015262001d7860028262004f04565b905062001d86838262001fe3565b60c083015262001d9860208262004f04565b905062001db78182855162001dae91906200506a565b859190620038ed565b60e083015250919050565b60008060008062001ddb6000546001600160a01b031690565b6001600160a01b031663c0fd8bde866040518263ffffffff1660e01b815260040162001e08919062004c1d565b60006040518083038186803b15801562001e2157600080fd5b505afa15801562001e36573d6000803e3d6000fd5b505050506040513d6000823e601f3d908101601f1916820160405262001e60919081019062004836565b92509250925081819062001e895760405162461bcd60e51b815260040162000ae9919062004c1d565b5062001e9583620035cf565b62001eb45760405162461bcd60e51b815260040162000ae99062004ce2565b600062001ec58460e0015162000bee565b9050620012d8818560a0015162003a08565b60408051608081018252600080825260208201819052918101829052606081018290529062001f07838262001fe3565b825262001f1660208262004f04565b82519091506a546f6b656e4272696467651462001f475760405162461bcd60e51b815260040162000ae99062004d35565b62001f53838262002045565b60ff16602083015262001f6860018262004f04565b9050816020015160ff1660021462001f945760405162461bcd60e51b815260040162000ae99062004d5b565b62001fa08382620020a5565b61ffff16604083015262001fb660028262004f04565b905062001fc4838262001fe3565b606083015262000ba560208262004f04565b620018ca8160016200297f565b600062001ff282602062004f04565b835110156200203c5760405162461bcd60e51b8152602060048201526015602482015274746f427974657333325f6f75744f66426f756e647360581b604482015260640162000ae9565b50016020015190565b60006200205482600162004f04565b835110156200209c5760405162461bcd60e51b8152602060048201526013602482015272746f55696e74385f6f75744f66426f756e647360681b604482015260640162000ae9565b50016001015190565b6000620020b482600262004f04565b83511015620020fd5760405162461bcd60e51b8152602060048201526014602482015273746f55696e7431365f6f75744f66426f756e647360601b604482015260640162000ae9565b50016002015190565b6040805160a0810182526000808252602082018190529181018290526060810182905260808101919091526001600160a01b038416600090815260096020526040812054819060ff16156200224957856001600160a01b0316639a8a05926040518163ffffffff1660e01b815260040160206040518083038186803b1580156200218f57600080fd5b505afa158015620021a4573d6000803e3d6000fd5b505050506040513d601f19601f82011682018060405250810190620021ca9190620049c4565b9150856001600160a01b0316633d6c043b6040518163ffffffff1660e01b815260040160206040518083038186803b1580156200220657600080fd5b505afa1580156200221b573d6000803e3d6000fd5b505050506040513d601f19601f82011682018060405250810190620022419190620045a0565b90506200225d565b505060025461ffff166001600160a01b0385165b60408051600481526024810182526020810180516001600160e01b031663313ce56760e01b17905290516000916001600160a01b03891691620022a1919062004b3a565b600060405180830381855afa9150503d8060008114620022de576040519150601f19603f3d011682016040523d82523d6000602084013e620022e3565b606091505b50915050600081806020019051810190620022ff919062004aed565b90506200231862002311888362003b03565b8262003b42565b96506200232860025461ffff1690565b61ffff168461ffff161415620024c857604080513060248083019190915282518083039091018152604490910182526020810180516001600160e01b03166370a0823160e01b17905290516000916001600160a01b038b16916200238d919062004b3a565b600060405180830381855afa9150503d8060008114620023ca576040519150601f19603f3d011682016040523d82523d6000602084013e620023cf565b606091505b50915050600081806020019051810190620023eb9190620045a0565b9050620023fb8a33308c62003b77565b604080513060248083019190915282518083039091018152604490910182526020810180516001600160e01b03166370a0823160e01b17905290516000916001600160a01b038d169162002450919062004b3a565b600060405180830381855afa9150503d80600081146200248d576040519150601f19603f3d011682016040523d82523d6000602084013e62002492565b606091505b50915050600081806020019051810190620024ae9190620045a0565b9050620024bc83826200506a565b9a505050505062002539565b620024d68833308a62003b77565b604051632770a7eb60e21b8152306004820152602481018890526001600160a01b03891690639dc29fac90604401600060405180830381600087803b1580156200251f57600080fd5b505af115801562002534573d6000803e3d6000fd5b505050505b600062002547888362003b03565b9050600062002557888462003b03565b90506200256760025461ffff1690565b61ffff168661ffff1614156200258357620025838a8362003bea565b6040805160a08101825261ffff909716875260208701959095529385015250506060820152346080820152949350505050565b600086841115620025ff5760405162461bcd60e51b815260206004820152601260248201527119995948195e18d959591cc8185b5bdd5b9d60721b604482015260640162000ae9565b6040805160e081018252600181526020810189905290810189905261ffff8a8116606083015260808201879052871660a082015260c081018590526000546001600160a01b031663b19a437e858562002658856200120d565b600254640100000000900460ff166040518563ffffffff1660e01b8152600401620026869392919062004dfc565b6020604051808303818588803b158015620026a057600080fd5b505af1158015620026b5573d6000803e3d6000fd5b50505050506040513d601f19601f82011682018060405250810190620026dc919062004ad0565b9a9950505050505050505050565b604080516101608101825260008082526020820181905291810182905260608082018390526080820183905260a0820183905260c0820183905260e0820181905261010082018390526101208201526101408101919091526000606060008060006200275e6000546001600160a01b031690565b6001600160a01b031663c0fd8bde886040518263ffffffff1660e01b81526004016200278b919062004c1d565b60006040518083038186803b158015620027a457600080fd5b505afa158015620027b9573d6000803e3d6000fd5b505050506040513d6000823e601f3d908101601f19168201604052620027e3919081019062004836565b92509250925081620027fc579194509250905062002912565b60025462010000900461ffff1661ffff16836060015161ffff16146200285a5750506040805180820190915260168152753bb937b7339033b7bb32b93730b731b29031b430b4b760511b602082015290935060009250905062002912565b600354836080015114620028ad57505060408051808201909152601981527f77726f6e6720676f7665726e616e636520636f6e747261637400000000000000602082015290935060009250905062002912565b61014083015160009081526005602052604090205460ff1615620028f75782600060405180606001604052806022815260200162005a8c6022913995509550955050505062002912565b50506040805160208101909152600081529093506001925090505b9193909250565b6000908152600560205260409020805460ff19166001179055565b4681146200297a5760405162461bcd60e51b81526020600482015260126024820152711a5b9d985b1a5908195d9b50da185a5b925960721b604482015260640162000ae9565b600c55565b60606000806000620029996000546001600160a01b031690565b6001600160a01b031663c0fd8bde876040518263ffffffff1660e01b8152600401620029c6919062004c1d565b60006040518083038186803b158015620029df57600080fd5b505afa158015620029f4573d6000803e3d6000fd5b505050506040513d6000823e601f3d908101601f1916820160405262002a1e919081019062004836565b92509250925081819062002a475760405162461bcd60e51b815260040162000ae9919062004c1d565b5062002a5383620035cf565b62002a725760405162461bcd60e51b815260040162000ae99062004ce2565b600062002a838460e0015162001b39565b9050600062002a96826080015162003cb7565b9050816000015160ff166003141562002af457336001600160a01b0382161462002af45760405162461bcd60e51b815260206004820152600e60248201526d34b73b30b634b21039b2b73232b960911b604482015260640162000ae9565b61014085015160009081526006602052604090205460ff161562002b5b5760405162461bcd60e51b815260206004820152601a60248201527f7472616e7366657220616c726561647920636f6d706c65746564000000000000604482015260640162000ae9565b62002b808561014001516000908152600660205260409020805460ff19166001179055565b60025461ffff1661ffff168260a0015161ffff161462002bda5760405162461bcd60e51b815260206004820152601460248201527334b73b30b634b2103a30b933b2ba1031b430b4b760611b604482015260640162000ae9565b600062002bea60025461ffff1690565b61ffff16836060015161ffff16141562002c255762002c0d836040015162003cb7565b905062002c1f81846020015162003d0d565b62002ca6565b600062002c3b8460600151856040015162000f60565b90506001600160a01b03811662002ca35760405162461bcd60e51b815260206004820152602560248201527f6e6f207772617070657220666f72207468697320746f6b656e2063726561746560448201526419081e595d60da1b606482015260840162000ae9565b90505b87158062002cc157506004546001600160a01b038281169116145b62002d1b5760405162461bcd60e51b815260206004820152602360248201527f696e76616c696420746f6b656e2c2063616e206f6e6c7920756e77726170205760448201526208aa8960eb1b606482015260840162000ae9565b60408051600481526024810182526020810180516001600160e01b031663313ce56760e01b17905290516000916001600160a01b0384169162002d5f919062004b3a565b600060405180830381855afa9150503d806000811462002d9c576040519150601f19603f3d011682016040523d82523d6000602084013e62002da1565b606091505b5091505060008180602001905181019062002dbd919062004aed565b9050600062002dd186602001518362003b42565b9050600062002de58760c001518462003b42565b905060008111801562002e0157506001600160a01b0386163314155b1562002f93578181111562002e645760405162461bcd60e51b815260206004820152602260248201527f66656520686967686572207468616e207472616e7366657272656420616d6f756044820152611b9d60f21b606482015260840162000ae9565b8b1562002efe5760048054604051632e1a7d4d60e01b81529182018390526001600160a01b031690632e1a7d4d90602401600060405180830381600087803b15801562002eb057600080fd5b505af115801562002ec5573d6000803e3d6000fd5b505060405133925083156108fc02915083906000818181858888f1935050505015801562002ef7573d6000803e3d6000fd5b5062002f97565b60025461ffff1661ffff16876060015161ffff161462002f80576040516340c10f1960e01b8152336004820152602481018290526001600160a01b038616906340c10f1990604401600060405180830381600087803b15801562002f6157600080fd5b505af115801562002f76573d6000803e3d6000fd5b5050505062002f97565b62002f8d85338362003d3f565b62002f97565b5060005b600062002fa582846200506a565b90508c156200304a5760048054604051632e1a7d4d60e01b81529182018390526001600160a01b031690632e1a7d4d90602401600060405180830381600087803b15801562002ff357600080fd5b505af115801562003008573d6000803e3d6000fd5b50506040516001600160a01b038a16925083156108fc02915083906000818181858888f1935050505015801562003043573d6000803e3d6000fd5b50620030db565b60025461ffff1661ffff16886060015161ffff1614620030ce576040516340c10f1960e01b81526001600160a01b038881166004830152602482018390528716906340c10f1990604401600060405180830381600087803b158015620030af57600080fd5b505af1158015620030c4573d6000803e3d6000fd5b50505050620030db565b620030db86888362003d3f565b50505060e0909701519a9950505050505050505050565b6000620031267f360894a13ba1a3210667c828492db98dca3e2076cc3735a920a3ca505d382bbc546001600160a01b031690565b9050620031338262003d71565b60408051600481526024810182526020810180516001600160e01b031663204a7f0760e21b179052905160009182916001600160a01b03861691620031789162004b3a565b600060405180830381855af49150503d8060008114620031b5576040519150601f19603f3d011682016040523d82523d6000602084013e620031ba565b606091505b5091509150818190620031e25760405162461bcd60e51b815260040162000ae9919062004c1d565b50836001600160a01b0316836001600160a01b03167f2e4cc16c100f0b55e2df82ab0b1a7e294aa9cbd01b48fbaf622683fbc0507a4960405160405180910390a350505050565b60006200323882602062004f04565b835110156200203c5760405162461bcd60e51b8152602060048201526015602482015274746f55696e743235365f6f75744f66426f756e647360581b604482015260640162000ae9565b6040805160a081018252600080825260208201819052918101829052606081018290526080810191909152600080546001600160a01b03166001600160a01b0316631a90a2196040518163ffffffff1660e01b815260040160206040518083038186803b158015620032f357600080fd5b505afa15801562003308573d6000803e3d6000fd5b505050506040513d601f19601f820116820180604052508101906200332e9190620045a0565b90503481106200338c5760405162461bcd60e51b815260206004820152602260248201527f76616c756520697320736d616c6c6572207468616e20776f726d686f6c652066604482015261656560f01b606482015260840162000ae9565b60006200339a82346200506a565b905080841115620034035760405162461bcd60e51b815260206004820152602c60248201527f66656520697320626967676572207468616e20616d6f756e74206d696e75732060448201526b776f726d686f6c652066656560a01b606482015260840162000ae9565b60006200341282601262003b03565b905060006200342386601262003b03565b905060006200343483601262003b42565b6200344090856200506a565b905080156200347957604051339082156108fc029083906000818181858888f1935050505015801562003477573d6000803e3d6000fd5b505b6004546001600160a01b031663d0e30db06200349683876200506a565b6040518263ffffffff1660e01b81526004016000604051808303818588803b158015620034c257600080fd5b505af1158015620034d7573d6000803e3d6000fd5b5050505050620034fa620034f36004546001600160a01b031690565b8462003bea565b6040518060a001604052806200351360025461ffff1690565b61ffff1681526020016200352f6004546001600160a01b031690565b6001600160a01b031660001b81526020018481526020018381526020018681525095505050505050919050565b6040805161010081018252600381526020810188905290810188905261ffff808a16606083015260808201869052861660a08201523360c082015260e08101829052600090620035b46000546001600160a01b031690565b6001600160a01b031663b19a437e86866200265885620019cd565b6000620035db62001a10565b15620036195760405162461bcd60e51b815260206004820152600c60248201526b696e76616c696420666f726b60a01b604482015260640162000ae9565b50608081015160609091015161ffff166000908152600b60205260409020541490565b60006200364c60025461ffff1690565b61ffff16836040015161ffff161415620036ba5760405162461bcd60e51b815260206004820152602860248201527f63616e206f6e6c79207772617020746f6b656e732066726f6d20666f726569676044820152676e20636861696e7360c01b606482015260840162000ae9565b60006001600160a01b0316620036d98460400151856020015162000f60565b6001600160a01b031614620037315760405162461bcd60e51b815260206004820152601c60248201527f7772617070656420617373657420616c72656164792065786973747300000000604482015260640162000ae9565b600063c71f461560e01b6200374a8560a0015162003db3565b62003759866080015162003db3565b8660600151863089604001518a6020015160405160240162003782979695949392919062004c75565b60408051601f19818403018152918152602080830180516001600160e01b03166001600160e01b03199095169490941790935251909250600091620037cc91309185910162004bf7565b6040516020818303038152906040529050600060405180602001620037f19062004209565b601f1982820381018352601f909101166040819052620038179190849060200162004b58565b60405160208183030381529060405290506000866040015187602001516040516020016200385e92919060f09290921b6001600160f01b0319168252600282015260220190565b604051602081830303815290604052805190602001209050808251602084016000f59450843b6200388e57600080fd5b6040808801516020808a015161ffff90921660009081526008825283812092815291815282822080546001600160a01b0319166001600160a01b038a1690811790915582526009905220805460ff191660011790555050505092915050565b606081620038fd81601f62004f04565b10156200393e5760405162461bcd60e51b815260206004820152600e60248201526d736c6963655f6f766572666c6f7760901b604482015260640162000ae9565b6200394a828462004f04565b84511015620039905760405162461bcd60e51b8152602060048201526011602482015270736c6963655f6f75744f66426f756e647360781b604482015260640162000ae9565b606082158015620039b15760405191506000825260208201604052620039fd565b6040519150601f8416801560200281840101858101878315602002848b0101015b81831015620039ec578051835260209283019201620039d2565b5050858452601f01601f1916604052505b5090505b9392505050565b60008062003a1f8460400151856020015162000f60565b90506001600160a01b03811662003a795760405162461bcd60e51b815260206004820152601d60248201527f7772617070656420617373657420646f6573206e6f7420657869737473000000604482015260640162000ae9565b806001600160a01b031663a18cd7c662003a978660a0015162003db3565b62003aa6876080015162003db3565b866040518463ffffffff1660e01b815260040162003ac79392919062004c32565b600060405180830381600087803b15801562003ae257600080fd5b505af115801562003af7573d6000803e3d6000fd5b50929695505050505050565b600060088260ff16111562003b3b5762003b1f60088362005084565b62003b2c90600a62004f89565b62003b38908462004f1f565b92505b5090919050565b600060088260ff16111562003b3b5762003b5e60088362005084565b62003b6b90600a62004f89565b62003b38908462005048565b6040516001600160a01b038085166024830152831660448201526064810182905262003be49085906323b872dd60e01b906084015b60408051601f198184030181529190526020810180516001600160e01b03166001600160e01b03199093169290921790915262003eee565b50505050565b6001600160a01b0382166000908152600a60205260409020546001600160401b0362003c17838362004f04565b111562003c855760405162461bcd60e51b815260206004820152603560248201527f7472616e736665722065786365656473206d6178206f75747374616e64696e6760448201527408189c9a5919d959081d1bdad95b88185b5bdd5b9d605a1b606482015260840162000ae9565b62003cb28362003c96848462004f04565b6001600160a01b039091166000908152600a6020526040902055565b505050565b60006001600160a01b031982161562003d095760405162461bcd60e51b8152602060048201526013602482015272696e76616c69642045564d206164647265737360681b604482015260640162000ae9565b5090565b620018ca828262003d33856001600160a01b03166000908152600a602052604090205490565b62003c9691906200506a565b6040516001600160a01b03831660248201526044810182905262003cb290849063a9059cbb60e01b9060640162003bac565b62003d7c8162003fc7565b6040516001600160a01b038216907fbc7cd75a20ee27fd9adebab32041f755214dbc6bffa90cc0225b39da2e5c2d3b90600090a250565b606060005b60208110801562003df6575082816020811062003de557634e487b7160e01b600052603260045260246000fd5b1a60f81b6001600160f81b03191615155b1562003e11578062003e0881620050d9565b91505062003db8565b6000816001600160401b0381111562003e3a57634e487b7160e01b600052604160045260246000fd5b6040519080825280601f01601f19166020018201604052801562003e65576020820181803683370190505b50905060005b8281101562003ee65784816020811062003e9557634e487b7160e01b600052603260045260246000fd5b1a60f81b82828151811062003eba57634e487b7160e01b600052603260045260246000fd5b60200101906001600160f81b031916908160001a9053508062003edd81620050d9565b91505062003e6b565b509392505050565b600062003f45826040518060400160405280602081526020017f5361666545524332303a206c6f772d6c6576656c2063616c6c206661696c6564815250856001600160a01b0316620040779092919063ffffffff16565b80519091501562003cb2578080602001905181019062003f6691906200456a565b62003cb25760405162461bcd60e51b815260206004820152602a60248201527f5361666545524332303a204552433230206f7065726174696f6e20646964206e6044820152691bdd081cdd58d8d9595960b21b606482015260840162000ae9565b6001600160a01b0381163b620040365760405162461bcd60e51b815260206004820152602d60248201527f455243313936373a206e657720696d706c656d656e746174696f6e206973206e60448201526c1bdd08184818dbdb9d1c9858dd609a1b606482015260840162000ae9565b7f360894a13ba1a3210667c828492db98dca3e2076cc3735a920a3ca505d382bbc80546001600160a01b0319166001600160a01b0392909216919091179055565b606062004088848460008562004090565b949350505050565b606082471015620040f35760405162461bcd60e51b815260206004820152602660248201527f416464726573733a20696e73756666696369656e742062616c616e636520666f6044820152651c8818d85b1b60d21b606482015260840162000ae9565b6001600160a01b0385163b6200414c5760405162461bcd60e51b815260206004820152601d60248201527f416464726573733a2063616c6c20746f206e6f6e2d636f6e7472616374000000604482015260640162000ae9565b600080866001600160a01b031685876040516200416a919062004b3a565b60006040518083038185875af1925050503d8060008114620041a9576040519150601f19603f3d011682016040523d82523d6000602084013e620041ae565b606091505b5091509150620041c0828286620041cb565b979650505050505050565b60608315620041dc57508162003a01565b825115620041ed5782518084602001fd5b8160405162461bcd60e51b815260040162000ae9919062004c1d565b610931806200515b83390190565b80356001600160a01b03811681146200422f57600080fd5b919050565b600082601f83011262004245578081fd5b815160206001600160401b038211156200426357620042636200510d565b62004273818360051b0162004ea7565b80838252828201915082860187848660071b890101111562004293578586fd5b855b858110156200430357608080838b031215620042af578788fd5b620042b962004e30565b835181528684015187820152604080850151620042d6816200514a565b90820152606084810151620042eb816200514a565b90820152855293850193919091019060010162004295565b5090979650505050505050565b805180151581146200422f57600080fd5b600082601f83011262004332578081fd5b813562004349620043438262004eda565b62004ea7565b8181528460208386010111156200435e578283fd5b816020850160208301379081016020019190915292915050565b600082601f83011262004389578081fd5b81516200439a620043438262004eda565b818152846020838601011115620043af578283fd5b62004088826020830160208701620050aa565b80356200422f8162005123565b80516200422f8162005123565b80516200422f8162005137565b80516001600160401b03811681146200422f57600080fd5b80356200422f816200514a565b80516200422f816200514a565b6000602082840312156200442d578081fd5b62003a018262004217565b60008060008060008060c0878903121562004451578182fd5b6200445c8762004217565b9550602087013594506040870135620044758162005123565b9350606087013592506080870135915060a0870135620044958162005137565b809150509295509295509295565b60008060008060008060c08789031215620044bc578384fd5b620044c78762004217565b9550602087013594506040870135620044e08162005123565b9350606087013592506080870135620044f98162005137565b915060a08701356001600160401b0381111562004514578182fd5b6200452289828a0162004321565b9150509295509295509295565b6000806040838503121562004542578182fd5b6200454d8362004217565b915060208301356200455f8162005137565b809150509250929050565b6000602082840312156200457c578081fd5b62003a018262004310565b60006020828403121562004599578081fd5b5035919050565b600060208284031215620045b2578081fd5b5051919050565b600060208284031215620045cb578081fd5b81356001600160401b03811115620045e1578182fd5b620040888482850162004321565b60006020828403121562004601578081fd5b81516001600160401b0381111562004617578182fd5b620040888482850162004378565b600060c0828403121562004637578081fd5b60405160c081018181106001600160401b03821117156200465c576200465c6200510d565b60405282356200466c816200514a565b8152602083810135908201526040830135620046888162005123565b604082015260608301356200469d816200514a565b60608201526080838101359082015260a0928301359281019290925250919050565b600060208284031215620046d1578081fd5b81356001600160401b0380821115620046e8578283fd5b908301906101008286031215620046fd578283fd5b6200470762004e5b565b620047128362004401565b815260208301356020820152604083013560408201526200473660608401620043c2565b6060820152608083013560808201526200475360a08401620043c2565b60a082015260c083013560c082015260e08301358281111562004774578485fd5b620047828782860162004321565b60e08301525095945050505050565b600060e08284031215620047a3578081fd5b60405160e081018181106001600160401b0382111715620047c857620047c86200510d565b6040528235620047d8816200514a565b8082525060208301356020820152604083013560408201526060830135620048008162005123565b6060820152608083810135908201526200481d60a08401620043c2565b60a082015260c083013560c08201528091505092915050565b6000806000606084860312156200484b578081fd5b83516001600160401b038082111562004862578283fd5b90850190610160828803121562004877578283fd5b6200488162004e81565b6200488c836200440e565b81526200489c60208401620043dc565b6020820152620048af60408401620043dc565b6040820152620048c260608401620043cf565b606082015260808301516080820152620048df60a08401620043e9565b60a0820152620048f260c084016200440e565b60c082015260e08301518281111562004909578485fd5b620049178982860162004378565b60e0830152506101006200492d818501620043dc565b90820152610120838101518381111562004945578586fd5b620049538a82870162004234565b918301919091525061014083810151908201529450620049766020870162004310565b935060408601519150808211156200498c578283fd5b506200499b8682870162004378565b9150509250925092565b600060208284031215620049b7578081fd5b813562003a018162005123565b600060208284031215620049d6578081fd5b815162003a018162005123565b60008060408385031215620049f6578182fd5b823562004a038162005123565b946020939093013593505050565b6000806000806080858703121562004a27578182fd5b843562004a348162005123565b93506020850135925060408501359150606085013562004a548162005137565b939692955090935050565b6000806000806080858703121562004a75578182fd5b843562004a828162005123565b935060208501359250604085013562004a9b8162005137565b915060608501356001600160401b0381111562004ab6578182fd5b62004ac48782880162004321565b91505092959194509250565b60006020828403121562004ae2578081fd5b62003a0182620043e9565b60006020828403121562004aff578081fd5b815162003a01816200514a565b6000815180845262004b26816020860160208601620050aa565b601f01601f19169290920160200192915050565b6000825162004b4e818460208701620050aa565b9190910192915050565b6000835162004b6c818460208801620050aa565b83519083019062004b82818360208801620050aa565b01949350505050565b60ff60f81b8960f81b168152876001820152866021820152600061ffff60f01b808860f01b166041840152866043840152808660f01b16606384015250836065830152825162004be3816085850160208701620050aa565b919091016085019998505050505050505050565b6001600160a01b0383168152604060208201819052600090620040889083018462004b0c565b60208152600062003a01602083018462004b0c565b60608152600062004c47606083018662004b0c565b828103602084015262004c5b818662004b0c565b9150506001600160401b0383166040830152949350505050565b60e08152600062004c8a60e083018a62004b0c565b828103602084015262004c9e818a62004b0c565b60ff98909816604084015250506001600160401b039490941660608501526001600160a01b0392909216608084015261ffff1660a083015260c09091015292915050565b6020808252600f908201526e34b73b30b634b21032b6b4ba3a32b960891b604082015260600190565b60208082526010908201526f34b73b30b634b2102a3930b739b332b960811b604082015260600190565b6020808252600c908201526b77726f6e67206d6f64756c6560a01b604082015260600190565b6020808252600c908201526b3bb937b7339030b1ba34b7b760a11b604082015260600190565b6020815260ff8251166020820152602082015160408201526040820151606082015261ffff6060830151166080820152608082015160a0820152600060a083015162004dd360c084018261ffff169052565b5060c083015160e083015260e08301516101008081850152506200408861012084018262004b0c565b63ffffffff8416815260606020820152600062004e1d606083018562004b0c565b905060ff83166040830152949350505050565b604051608081016001600160401b038111828210171562004e555762004e556200510d565b60405290565b60405161010081016001600160401b038111828210171562004e555762004e556200510d565b60405161016081016001600160401b038111828210171562004e555762004e556200510d565b604051601f8201601f191681016001600160401b038111828210171562004ed25762004ed26200510d565b604052919050565b60006001600160401b0382111562004ef65762004ef66200510d565b50601f01601f191660200190565b6000821982111562004f1a5762004f1a620050f7565b500190565b60008262004f3b57634e487b7160e01b81526012600452602481fd5b500490565b600181815b8085111562004f8157816000190482111562004f655762004f65620050f7565b8085161562004f7357918102915b93841c939080029062004f45565b509250929050565b600062003a0160ff84168360008262004fa55750600162000d8b565b8162004fb45750600062000d8b565b816001811462004fcd576002811462004fd85762004ff8565b600191505062000d8b565b60ff84111562004fec5762004fec620050f7565b50506001821b62000d8b565b5060208310610133831016604e8410600b84101617156200501d575081810a62000d8b565b62005029838362004f40565b8060001904821115620050405762005040620050f7565b029392505050565b6000816000190483118215151615620050655762005065620050f7565b500290565b6000828210156200507f576200507f620050f7565b500390565b600060ff821660ff841680821015620050a157620050a1620050f7565b90039392505050565b60005b83811015620050c7578181015183820152602001620050ad565b8381111562003be45750506000910152565b6000600019821415620050f057620050f0620050f7565b5060010190565b634e487b7160e01b600052601160045260246000fd5b634e487b7160e01b600052604160045260246000fd5b61ffff811681146200513457600080fd5b50565b63ffffffff811681146200513457600080fd5b60ff811681146200513457600080fdfe608060405234801561001057600080fd5b5060405161093138038061093183398101604081905261002f9161045d565b818161003d82826000610046565b505050506105aa565b61004f83610120565b6040516001600160a01b038416907f1cf3b03a6cf19fa2baba4df148e9dcabedea7f8a5c07840e207e5c089be95d3e90600090a26000825111806100905750805b1561011b57610119836001600160a01b0316635c60da1b6040518163ffffffff1660e01b815260040160206040518083038186803b1580156100d157600080fd5b505afa1580156100e5573d6000803e3d6000fd5b505050506040513d601f19601f820116820180604052508101906101099190610443565b836102d260201b6100291760201c565b505b505050565b610133816102fe60201b6100551760201c565b6101925760405162461bcd60e51b815260206004820152602560248201527f455243313936373a206e657720626561636f6e206973206e6f74206120636f6e6044820152641d1c9858dd60da1b60648201526084015b60405180910390fd5b610215816001600160a01b0316635c60da1b6040518163ffffffff1660e01b815260040160206040518083038186803b1580156101ce57600080fd5b505afa1580156101e2573d6000803e3d6000fd5b505050506040513d601f19601f820116820180604052508101906102069190610443565b6102fe60201b6100551760201c565b61027a5760405162461bcd60e51b815260206004820152603060248201527f455243313936373a20626561636f6e20696d706c656d656e746174696f6e206960448201526f1cc81b9bdd08184818dbdb9d1c9858dd60821b6064820152608401610189565b806102b17fa3f0ad74e5423aebfd80d3ef4346578335a9a72aeaee59ff6cb3582b35133d5060001b61030d60201b6100641760201c565b80546001600160a01b0319166001600160a01b039290921691909117905550565b60606102f7838360405180606001604052806027815260200161090a60279139610310565b9392505050565b6001600160a01b03163b151590565b90565b60606001600160a01b0384163b6103785760405162461bcd60e51b815260206004820152602660248201527f416464726573733a2064656c65676174652063616c6c20746f206e6f6e2d636f6044820152651b9d1c9858dd60d21b6064820152608401610189565b600080856001600160a01b0316856040516103939190610519565b600060405180830381855af49150503d80600081146103ce576040519150601f19603f3d011682016040523d82523d6000602084013e6103d3565b606091505b5090925090506103e48282866103ee565b9695505050505050565b606083156103fd5750816102f7565b82511561040d5782518084602001fd5b8160405162461bcd60e51b81526004016101899190610535565b80516001600160a01b038116811461043e57600080fd5b919050565b600060208284031215610454578081fd5b6102f782610427565b6000806040838503121561046f578081fd5b61047883610427565b60208401519092506001600160401b0380821115610494578283fd5b818501915085601f8301126104a7578283fd5b8151818111156104b9576104b9610594565b604051601f8201601f19908116603f011681019083821181831017156104e1576104e1610594565b816040528281528860208487010111156104f9578586fd5b61050a836020830160208801610568565b80955050505050509250929050565b6000825161052b818460208701610568565b9190910192915050565b6020815260008251806020840152610554816040850160208701610568565b601f01601f19169190910160400192915050565b60005b8381101561058357818101518382015260200161056b565b838111156101195750506000910152565b634e487b7160e01b600052604160045260246000fd5b610351806105b96000396000f3fe60806040523661001357610011610017565b005b6100115b610027610022610067565b61010f565b565b606061004e83836040518060600160405280602781526020016102f560279139610133565b9392505050565b6001600160a01b03163b151590565b90565b600061009a7fa3f0ad74e5423aebfd80d3ef4346578335a9a72aeaee59ff6cb3582b35133d50546001600160a01b031690565b6001600160a01b0316635c60da1b6040518163ffffffff1660e01b815260040160206040518083038186803b1580156100d257600080fd5b505afa1580156100e6573d6000803e3d6000fd5b505050506040513d601f19601f8201168201806040525081019061010a919061024e565b905090565b3660008037600080366000845af43d6000803e80801561012e573d6000f35b3d6000fd5b60606001600160a01b0384163b6101a05760405162461bcd60e51b815260206004820152602660248201527f416464726573733a2064656c65676174652063616c6c20746f206e6f6e2d636f6044820152651b9d1c9858dd60d21b60648201526084015b60405180910390fd5b600080856001600160a01b0316856040516101bb9190610275565b600060405180830381855af49150503d80600081146101f6576040519150601f19603f3d011682016040523d82523d6000602084013e6101fb565b606091505b509150915061020b828286610215565b9695505050505050565b6060831561022457508161004e565b8251156102345782518084602001fd5b8160405162461bcd60e51b81526004016101979190610291565b60006020828403121561025f578081fd5b81516001600160a01b038116811461004e578182fd5b600082516102878184602087016102c4565b9190910192915050565b60208152600082518060208401526102b08160408501602087016102c4565b601f01601f19169190910160400192915050565b60005b838110156102df5781810151838201526020016102c7565b838111156102ee576000848401525b5050505056fe416464726573733a206c6f772d6c6576656c2064656c65676174652063616c6c206661696c6564a2646970667358221220d5e84f19695be96b4df4c99ee546beca6e75acec314e5b536c057b2abdedf8b364736f6c63430008040033416464726573733a206c6f772d6c6576656c2064656c65676174652063616c6c206661696c6564676f7665726e616e636520616374696f6e20616c726561647920636f6e73756d6564a2646970667358221220b4b612bd26faacc582df3b18f5c7930cee390d96001856fc0da12583dc34e9a864736f6c63430008040033",
  "immutableReferences": {},
  "source": "// contracts/Bridge.sol\n// SPDX-License-Identifier: Apache 2\n\npragma solidity ^0.8.0;\n\nimport \"@openzeppelin/contracts/security/ReentrancyGuard.sol\";\nimport \"@openzeppelin/contracts/token/ERC20/IERC20.sol\";\nimport \"@openzeppelin/contracts/token/ERC20/utils/SafeERC20.sol\";\n\nimport \"../libraries/external/BytesLib.sol\";\n\nimport \"./BridgeGetters.sol\";\nimport \"./BridgeSetters.sol\";\nimport \"./BridgeStructs.sol\";\nimport \"./BridgeGovernance.sol\";\n\nimport \"./token/Token.sol\";\nimport \"./token/TokenImplementation.sol\";\n\ncontract Bridge is BridgeGovernance, ReentrancyGuard {\n    using BytesLib for bytes;\n\n    /*\n     *  @dev Produce a AssetMeta message for a given token\n     */\n    function attestToken(address tokenAddress, uint32 nonce) public payable returns (uint64 sequence) {\n        // decimals, symbol & token are not part of the core ERC20 token standard, so we need to support contracts that dont implement them\n        (,bytes memory queriedDecimals) = tokenAddress.staticcall(abi.encodeWithSignature(\"decimals()\"));\n        (,bytes memory queriedSymbol) = tokenAddress.staticcall(abi.encodeWithSignature(\"symbol()\"));\n        (,bytes memory queriedName) = tokenAddress.staticcall(abi.encodeWithSignature(\"name()\"));\n\n        uint8 decimals = abi.decode(queriedDecimals, (uint8));\n\n        string memory symbolString = abi.decode(queriedSymbol, (string));\n        string memory nameString = abi.decode(queriedName, (string));\n\n        bytes32 symbol;\n        bytes32 name;\n        assembly {\n            // first 32 bytes hold string length\n            symbol := mload(add(symbolString, 32))\n            name := mload(add(nameString, 32))\n        }\n\n        BridgeStructs.AssetMeta memory meta = BridgeStructs.AssetMeta({\n        payloadID : 2,\n        tokenAddress : bytes32(uint256(uint160(tokenAddress))), // Address of the token. Left-zero-padded if shorter than 32 bytes\n        tokenChain : chainId(), // Chain ID of the token\n        decimals : decimals, // Number of decimals of the token (big-endian uint8)\n        symbol : symbol, // Symbol of the token (UTF-8)\n        name : name // Name of the token (UTF-8)\n        });\n\n        bytes memory encoded = encodeAssetMeta(meta);\n\n        sequence = wormhole().publishMessage{\n            value : msg.value\n        }(nonce, encoded, finality());\n    }\n\n    /*\n     *  @notice Send eth through portal by first wrapping it to WETH.\n     */\n    function wrapAndTransferETH(\n        uint16 recipientChain,\n        bytes32 recipient,\n        uint256 arbiterFee,\n        uint32 nonce\n    ) public payable returns (uint64 sequence) {\n        BridgeStructs.TransferResult\n            memory transferResult = _wrapAndTransferETH(arbiterFee);\n        sequence = logTransfer(\n            transferResult.tokenChain,\n            transferResult.tokenAddress,\n            transferResult.normalizedAmount,\n            recipientChain,\n            recipient,\n            transferResult.normalizedArbiterFee,\n            transferResult.wormholeFee,\n            nonce\n        );\n    }\n\n    /*\n     *  @notice Send eth through portal by first wrapping it.\n     *\n     *  @dev This type of transfer is called a \"contract-controlled transfer\".\n     *  There are three differences from a regular token transfer:\n     *  1) Additional arbitrary payload can be attached to the message\n     *  2) Only the recipient (typically a contract) can redeem the transaction\n     *  3) The sender's address (msg.sender) is also included in the transaction payload\n     *\n     *  With these three additional components, xDapps can implement cross-chain\n     *  composable interactions.\n     */\n    function wrapAndTransferETHWithPayload(\n        uint16 recipientChain,\n        bytes32 recipient,\n        uint32 nonce,\n        bytes memory payload\n    ) public payable returns (uint64 sequence) {\n        BridgeStructs.TransferResult\n            memory transferResult = _wrapAndTransferETH(0);\n        sequence = logTransferWithPayload(\n            transferResult.tokenChain,\n            transferResult.tokenAddress,\n            transferResult.normalizedAmount,\n            recipientChain,\n            recipient,\n            transferResult.wormholeFee,\n            nonce,\n            payload\n        );\n    }\n\n    function _wrapAndTransferETH(uint256 arbiterFee) internal returns (BridgeStructs.TransferResult memory transferResult) {\n        uint wormholeFee = wormhole().messageFee();\n\n        require(wormholeFee < msg.value, \"value is smaller than wormhole fee\");\n\n        uint amount = msg.value - wormholeFee;\n\n        require(arbiterFee <= amount, \"fee is bigger than amount minus wormhole fee\");\n\n        uint normalizedAmount = normalizeAmount(amount, 18);\n        uint normalizedArbiterFee = normalizeAmount(arbiterFee, 18);\n\n        // refund dust\n        uint dust = amount - deNormalizeAmount(normalizedAmount, 18);\n        if (dust > 0) {\n            payable(msg.sender).transfer(dust);\n        }\n\n        // deposit into WETH\n        WETH().deposit{\n            value : amount - dust\n        }();\n\n        // track and check outstanding token amounts\n        bridgeOut(address(WETH()), normalizedAmount);\n\n        transferResult = BridgeStructs.TransferResult({\n            tokenChain : chainId(),\n            tokenAddress : bytes32(uint256(uint160(address(WETH())))),\n            normalizedAmount : normalizedAmount,\n            normalizedArbiterFee : normalizedArbiterFee,\n            wormholeFee : wormholeFee\n        });\n    }\n\n    /*\n     *  @notice Send ERC20 token through portal.\n     */\n    function transferTokens(\n        address token,\n        uint256 amount,\n        uint16 recipientChain,\n        bytes32 recipient,\n        uint256 arbiterFee,\n        uint32 nonce\n    ) public payable nonReentrant returns (uint64 sequence) {\n        BridgeStructs.TransferResult memory transferResult = _transferTokens(\n            token,\n            amount,\n            arbiterFee\n        );\n        sequence = logTransfer(\n            transferResult.tokenChain,\n            transferResult.tokenAddress,\n            transferResult.normalizedAmount,\n            recipientChain,\n            recipient,\n            transferResult.normalizedArbiterFee,\n            transferResult.wormholeFee,\n            nonce\n        );\n    }\n\n    /*\n     *  @notice Send ERC20 token through portal.\n     *\n     *  @dev This type of transfer is called a \"contract-controlled transfer\".\n     *  There are three differences from a regular token transfer:\n     *  1) Additional arbitrary payload can be attached to the message\n     *  2) Only the recipient (typically a contract) can redeem the transaction\n     *  3) The sender's address (msg.sender) is also included in the transaction payload\n     *\n     *  With these three additional components, xDapps can implement cross-chain\n     *  composable interactions.\n     */\n    function transferTokensWithPayload(\n        address token,\n        uint256 amount,\n        uint16 recipientChain,\n        bytes32 recipient,\n        uint32 nonce,\n        bytes memory payload\n    ) public payable nonReentrant returns (uint64 sequence) {\n        BridgeStructs.TransferResult memory transferResult = _transferTokens(\n            token,\n            amount,\n            0\n        );\n        sequence = logTransferWithPayload(\n            transferResult.tokenChain,\n            transferResult.tokenAddress,\n            transferResult.normalizedAmount,\n            recipientChain,\n            recipient,\n            transferResult.wormholeFee,\n            nonce,\n            payload\n        );\n    }\n\n    /*\n     *  @notice Initiate a transfer\n     */\n    function _transferTokens(address token, uint256 amount, uint256 arbiterFee) internal returns (BridgeStructs.TransferResult memory transferResult) {\n        // determine token parameters\n        uint16 tokenChain;\n        bytes32 tokenAddress;\n        if (isWrappedAsset(token)) {\n            tokenChain = TokenImplementation(token).chainId();\n            tokenAddress = TokenImplementation(token).nativeContract();\n        } else {\n            tokenChain = chainId();\n            tokenAddress = bytes32(uint256(uint160(token)));\n        }\n\n        // query tokens decimals\n        (,bytes memory queriedDecimals) = token.staticcall(abi.encodeWithSignature(\"decimals()\"));\n        uint8 decimals = abi.decode(queriedDecimals, (uint8));\n\n        // don't deposit dust that can not be bridged due to the decimal shift\n        amount = deNormalizeAmount(normalizeAmount(amount, decimals), decimals);\n\n        if (tokenChain == chainId()) {\n            // query own token balance before transfer\n            (,bytes memory queriedBalanceBefore) = token.staticcall(abi.encodeWithSelector(IERC20.balanceOf.selector, address(this)));\n            uint256 balanceBefore = abi.decode(queriedBalanceBefore, (uint256));\n\n            // transfer tokens\n            SafeERC20.safeTransferFrom(IERC20(token), msg.sender, address(this), amount);\n\n            // query own token balance after transfer\n            (,bytes memory queriedBalanceAfter) = token.staticcall(abi.encodeWithSelector(IERC20.balanceOf.selector, address(this)));\n            uint256 balanceAfter = abi.decode(queriedBalanceAfter, (uint256));\n\n            // correct amount for potential transfer fees\n            amount = balanceAfter - balanceBefore;\n        } else {\n            SafeERC20.safeTransferFrom(IERC20(token), msg.sender, address(this), amount);\n\n            TokenImplementation(token).burn(address(this), amount);\n        }\n\n        // normalize amounts decimals\n        uint256 normalizedAmount = normalizeAmount(amount, decimals);\n        uint256 normalizedArbiterFee = normalizeAmount(arbiterFee, decimals);\n\n        // track and check outstanding token amounts\n        if (tokenChain == chainId()) {\n            bridgeOut(token, normalizedAmount);\n        }\n\n        transferResult = BridgeStructs.TransferResult({\n            tokenChain : tokenChain,\n            tokenAddress : tokenAddress,\n            normalizedAmount : normalizedAmount,\n            normalizedArbiterFee : normalizedArbiterFee,\n            wormholeFee : msg.value\n        });\n    }\n\n    function normalizeAmount(uint256 amount, uint8 decimals) internal pure returns(uint256){\n        if (decimals > 8) {\n            amount /= 10 ** (decimals - 8);\n        }\n        return amount;\n    }\n\n    function deNormalizeAmount(uint256 amount, uint8 decimals) internal pure returns(uint256){\n        if (decimals > 8) {\n            amount *= 10 ** (decimals - 8);\n        }\n        return amount;\n    }\n\n    function logTransfer(\n        uint16 tokenChain,\n        bytes32 tokenAddress,\n        uint256 amount,\n        uint16 recipientChain,\n        bytes32 recipient,\n        uint256 fee,\n        uint256 callValue,\n        uint32 nonce\n    ) internal returns (uint64 sequence) {\n        require(fee <= amount, \"fee exceeds amount\");\n\n        BridgeStructs.Transfer memory transfer = BridgeStructs.Transfer({\n            payloadID: 1,\n            amount: amount,\n            tokenAddress: tokenAddress,\n            tokenChain: tokenChain,\n            to: recipient,\n            toChain: recipientChain,\n            fee: fee\n        });\n\n        sequence = wormhole().publishMessage{value: callValue}(\n            nonce,\n            encodeTransfer(transfer),\n            finality()\n        );\n    }\n\n    /*\n     * @dev Publish a token transfer message with payload.\n     *\n     * @return The sequence number of the published message.\n     */\n    function logTransferWithPayload(\n        uint16 tokenChain,\n        bytes32 tokenAddress,\n        uint256 amount,\n        uint16 recipientChain,\n        bytes32 recipient,\n        uint256 callValue,\n        uint32 nonce,\n        bytes memory payload\n    ) internal returns (uint64 sequence) {\n        BridgeStructs.TransferWithPayload memory transfer = BridgeStructs\n            .TransferWithPayload({\n                payloadID: 3,\n                amount: amount,\n                tokenAddress: tokenAddress,\n                tokenChain: tokenChain,\n                to: recipient,\n                toChain: recipientChain,\n                fromAddress : bytes32(uint256(uint160(msg.sender))),\n                payload: payload\n            });\n\n        sequence = wormhole().publishMessage{value: callValue}(\n            nonce,\n            encodeTransferWithPayload(transfer),\n            finality()\n        );\n    }\n\n    function updateWrapped(bytes memory encodedVm) external returns (address token) {\n        (IWormhole.VM memory vm, bool valid, string memory reason) = wormhole().parseAndVerifyVM(encodedVm);\n\n        require(valid, reason);\n        require(verifyBridgeVM(vm), \"invalid emitter\");\n\n        BridgeStructs.AssetMeta memory meta = parseAssetMeta(vm.payload);\n        return _updateWrapped(meta, vm.sequence);\n    }\n\n    function _updateWrapped(BridgeStructs.AssetMeta memory meta, uint64 sequence) internal returns (address token) {\n        address wrapped = wrappedAsset(meta.tokenChain, meta.tokenAddress);\n        require(wrapped != address(0), \"wrapped asset does not exists\");\n\n        // Update metadata\n        TokenImplementation(wrapped).updateDetails(bytes32ToString(meta.name), bytes32ToString(meta.symbol), sequence);\n\n        return wrapped;\n    }\n\n    function createWrapped(bytes memory encodedVm) external returns (address token) {\n        (IWormhole.VM memory vm, bool valid, string memory reason) = wormhole().parseAndVerifyVM(encodedVm);\n\n        require(valid, reason);\n        require(verifyBridgeVM(vm), \"invalid emitter\");\n\n        BridgeStructs.AssetMeta memory meta = parseAssetMeta(vm.payload);\n        return _createWrapped(meta, vm.sequence);\n    }\n\n    // Creates a wrapped asset using AssetMeta\n    function _createWrapped(BridgeStructs.AssetMeta memory meta, uint64 sequence) internal returns (address token) {\n        require(meta.tokenChain != chainId(), \"can only wrap tokens from foreign chains\");\n        require(wrappedAsset(meta.tokenChain, meta.tokenAddress) == address(0), \"wrapped asset already exists\");\n\n        // initialize the TokenImplementation\n        bytes memory initialisationArgs = abi.encodeWithSelector(\n            TokenImplementation.initialize.selector,\n            bytes32ToString(meta.name),\n            bytes32ToString(meta.symbol),\n            meta.decimals,\n            sequence,\n\n            address(this),\n\n            meta.tokenChain,\n            meta.tokenAddress\n        );\n\n        // initialize the BeaconProxy\n        bytes memory constructorArgs = abi.encode(address(this), initialisationArgs);\n\n        // deployment code\n        bytes memory bytecode = abi.encodePacked(type(BridgeToken).creationCode, constructorArgs);\n\n        bytes32 salt = keccak256(abi.encodePacked(meta.tokenChain, meta.tokenAddress));\n\n        assembly {\n            token := create2(0, add(bytecode, 0x20), mload(bytecode), salt)\n\n            if iszero(extcodesize(token)) {\n                revert(0, 0)\n            }\n        }\n\n        setWrappedAsset(meta.tokenChain, meta.tokenAddress, token);\n    }\n\n    /*\n     * @notice Complete a contract-controlled transfer of an ERC20 token.\n     *\n     * @dev The transaction can only be redeemed by the recipient, typically a\n     * contract.\n     *\n     * @param encodedVm    A byte array containing a VAA signed by the guardians.\n     *\n     * @return The byte array representing a BridgeStructs.TransferWithPayload.\n     */\n    function completeTransferWithPayload(bytes memory encodedVm) public returns (bytes memory) {\n        return _completeTransfer(encodedVm, false);\n    }\n\n    /*\n     * @notice Complete a contract-controlled transfer of WETH, and unwrap to ETH.\n     *\n     * @dev The transaction can only be redeemed by the recipient, typically a\n     * contract.\n     *\n     * @param encodedVm    A byte array containing a VAA signed by the guardians.\n     *\n     * @return The byte array representing a BridgeStructs.TransferWithPayload.\n     */\n    function completeTransferAndUnwrapETHWithPayload(bytes memory encodedVm) public returns (bytes memory) {\n        return _completeTransfer(encodedVm, true);\n    }\n\n    /*\n     * @notice Complete a transfer of an ERC20 token.\n     *\n     * @dev The msg.sender gets paid the associated fee.\n     *\n     * @param encodedVm A byte array containing a VAA signed by the guardians.\n     */\n    function completeTransfer(bytes memory encodedVm) public {\n        _completeTransfer(encodedVm, false);\n    }\n\n    /*\n     * @notice Complete a transfer of WETH and unwrap to eth.\n     *\n     * @dev The msg.sender gets paid the associated fee.\n     *\n     * @param encodedVm A byte array containing a VAA signed by the guardians.\n     */\n    function completeTransferAndUnwrapETH(bytes memory encodedVm) public {\n        _completeTransfer(encodedVm, true);\n    }\n\n    /*\n     * @dev Truncate a 32 byte array to a 20 byte address.\n     *      Reverts if the array contains non-0 bytes in the first 12 bytes.\n     *\n     * @param bytes32 bytes The 32 byte array to be converted.\n     */\n    function _truncateAddress(bytes32 b) internal pure returns (address) {\n        require(bytes12(b) == 0, \"invalid EVM address\");\n        return address(uint160(uint256(b)));\n    }\n\n    // Execute a Transfer message\n    function _completeTransfer(bytes memory encodedVm, bool unwrapWETH) internal returns (bytes memory) {\n        (IWormhole.VM memory vm, bool valid, string memory reason) = wormhole().parseAndVerifyVM(encodedVm);\n\n        require(valid, reason);\n        require(verifyBridgeVM(vm), \"invalid emitter\");\n\n        BridgeStructs.Transfer memory transfer = _parseTransferCommon(vm.payload);\n\n        // payload 3 must be redeemed by the designated proxy contract\n        address transferRecipient = _truncateAddress(transfer.to);\n        if (transfer.payloadID == 3) {\n            require(msg.sender == transferRecipient, \"invalid sender\");\n        }\n\n        require(!isTransferCompleted(vm.hash), \"transfer already completed\");\n        setTransferCompleted(vm.hash);\n\n        require(transfer.toChain == chainId(), \"invalid target chain\");\n\n        IERC20 transferToken;\n        if (transfer.tokenChain == chainId()) {\n            transferToken = IERC20(_truncateAddress(transfer.tokenAddress));\n\n            // track outstanding token amounts\n            bridgedIn(address(transferToken), transfer.amount);\n        } else {\n            address wrapped = wrappedAsset(transfer.tokenChain, transfer.tokenAddress);\n            require(wrapped != address(0), \"no wrapper for this token created yet\");\n\n            transferToken = IERC20(wrapped);\n        }\n\n        require(unwrapWETH == false || address(transferToken) == address(WETH()), \"invalid token, can only unwrap WETH\");\n\n        // query decimals\n        (,bytes memory queriedDecimals) = address(transferToken).staticcall(abi.encodeWithSignature(\"decimals()\"));\n        uint8 decimals = abi.decode(queriedDecimals, (uint8));\n\n        // adjust decimals\n        uint256 nativeAmount = deNormalizeAmount(transfer.amount, decimals);\n        uint256 nativeFee = deNormalizeAmount(transfer.fee, decimals);\n\n        // transfer fee to arbiter\n        if (nativeFee > 0 && transferRecipient != msg.sender) {\n            require(nativeFee <= nativeAmount, \"fee higher than transferred amount\");\n\n            if (unwrapWETH) {\n                WETH().withdraw(nativeFee);\n\n                payable(msg.sender).transfer(nativeFee);\n            } else {\n                if (transfer.tokenChain != chainId()) {\n                    // mint wrapped asset\n                    TokenImplementation(address(transferToken)).mint(msg.sender, nativeFee);\n                } else {\n                    SafeERC20.safeTransfer(transferToken, msg.sender, nativeFee);\n                }\n            }\n        } else {\n            // set fee to zero in case transferRecipient == feeRecipient\n            nativeFee = 0;\n        }\n\n        // transfer bridged amount to recipient\n        uint transferAmount = nativeAmount - nativeFee;\n\n        if (unwrapWETH) {\n            WETH().withdraw(transferAmount);\n\n            payable(transferRecipient).transfer(transferAmount);\n        } else {\n            if (transfer.tokenChain != chainId()) {\n                // mint wrapped asset\n                TokenImplementation(address(transferToken)).mint(transferRecipient, transferAmount);\n            } else {\n                SafeERC20.safeTransfer(transferToken, transferRecipient, transferAmount);\n            }\n        }\n\n        return vm.payload;\n    }\n\n    function bridgeOut(address token, uint normalizedAmount) internal {\n        uint outstanding = outstandingBridged(token);\n        require(outstanding + normalizedAmount <= type(uint64).max, \"transfer exceeds max outstanding bridged token amount\");\n        setOutstandingBridged(token, outstanding + normalizedAmount);\n    }\n\n    function bridgedIn(address token, uint normalizedAmount) internal {\n        setOutstandingBridged(token, outstandingBridged(token) - normalizedAmount);\n    }\n\n    function verifyBridgeVM(IWormhole.VM memory vm) internal view returns (bool){\n        require(!isFork(), \"invalid fork\");\n        return bridgeContracts(vm.emitterChainId) == vm.emitterAddress;\n    }\n\n    function encodeAssetMeta(BridgeStructs.AssetMeta memory meta) public pure returns (bytes memory encoded) {\n        encoded = abi.encodePacked(\n            meta.payloadID,\n            meta.tokenAddress,\n            meta.tokenChain,\n            meta.decimals,\n            meta.symbol,\n            meta.name\n        );\n    }\n\n    function encodeTransfer(BridgeStructs.Transfer memory transfer) public pure returns (bytes memory encoded) {\n        encoded = abi.encodePacked(\n            transfer.payloadID,\n            transfer.amount,\n            transfer.tokenAddress,\n            transfer.tokenChain,\n            transfer.to,\n            transfer.toChain,\n            transfer.fee\n        );\n    }\n\n    function encodeTransferWithPayload(BridgeStructs.TransferWithPayload memory transfer) public pure returns (bytes memory encoded) {\n        encoded = abi.encodePacked(\n            transfer.payloadID,\n            transfer.amount,\n            transfer.tokenAddress,\n            transfer.tokenChain,\n            transfer.to,\n            transfer.toChain,\n            transfer.fromAddress,\n            transfer.payload\n        );\n    }\n\n    function parsePayloadID(bytes memory encoded) public pure returns (uint8 payloadID) {\n        payloadID = encoded.toUint8(0);\n    }\n\n    /*\n     * @dev Parse a token metadata attestation (payload id 2)\n     */\n    function parseAssetMeta(bytes memory encoded) public pure returns (BridgeStructs.AssetMeta memory meta) {\n        uint index = 0;\n\n        meta.payloadID = encoded.toUint8(index);\n        index += 1;\n\n        require(meta.payloadID == 2, \"invalid AssetMeta\");\n\n        meta.tokenAddress = encoded.toBytes32(index);\n        index += 32;\n\n        meta.tokenChain = encoded.toUint16(index);\n        index += 2;\n\n        meta.decimals = encoded.toUint8(index);\n        index += 1;\n\n        meta.symbol = encoded.toBytes32(index);\n        index += 32;\n\n        meta.name = encoded.toBytes32(index);\n        index += 32;\n\n        require(encoded.length == index, \"invalid AssetMeta\");\n    }\n\n    /*\n     * @dev Parse a token transfer (payload id 1).\n     *\n     * @params encoded The byte array corresponding to the token transfer (not\n     *                 the whole VAA, only the payload)\n     */\n    function parseTransfer(bytes memory encoded) public pure returns (BridgeStructs.Transfer memory transfer) {\n        uint index = 0;\n\n        transfer.payloadID = encoded.toUint8(index);\n        index += 1;\n\n        require(transfer.payloadID == 1, \"invalid Transfer\");\n\n        transfer.amount = encoded.toUint256(index);\n        index += 32;\n\n        transfer.tokenAddress = encoded.toBytes32(index);\n        index += 32;\n\n        transfer.tokenChain = encoded.toUint16(index);\n        index += 2;\n\n        transfer.to = encoded.toBytes32(index);\n        index += 32;\n\n        transfer.toChain = encoded.toUint16(index);\n        index += 2;\n\n        transfer.fee = encoded.toUint256(index);\n        index += 32;\n\n        require(encoded.length == index, \"invalid Transfer\");\n    }\n\n    /*\n     * @dev Parse a token transfer with payload (payload id 3).\n     *\n     * @params encoded The byte array corresponding to the token transfer (not\n     *                 the whole VAA, only the payload)\n     */\n    function parseTransferWithPayload(bytes memory encoded) public pure returns (BridgeStructs.TransferWithPayload memory transfer) {\n        uint index = 0;\n\n        transfer.payloadID = encoded.toUint8(index);\n        index += 1;\n\n        require(transfer.payloadID == 3, \"invalid Transfer\");\n\n        transfer.amount = encoded.toUint256(index);\n        index += 32;\n\n        transfer.tokenAddress = encoded.toBytes32(index);\n        index += 32;\n\n        transfer.tokenChain = encoded.toUint16(index);\n        index += 2;\n\n        transfer.to = encoded.toBytes32(index);\n        index += 32;\n\n        transfer.toChain = encoded.toUint16(index);\n        index += 2;\n\n        transfer.fromAddress = encoded.toBytes32(index);\n        index += 32;\n\n        transfer.payload = encoded.slice(index, encoded.length - index);\n    }\n\n    /*\n     * @dev Parses either a type 1 transfer or a type 3 transfer (\"transfer with\n     *      payload\") as a Transfer struct. The fee is set to 0 for type 3\n     *      transfers, since they have no fees associated with them.\n     *\n     *      The sole purpose of this function is to get around the local\n     *      variable count limitation in _completeTransfer.\n     */\n    function _parseTransferCommon(bytes memory encoded) public pure returns (BridgeStructs.Transfer memory transfer) {\n        uint8 payloadID = parsePayloadID(encoded);\n\n        if (payloadID == 1) {\n            transfer = parseTransfer(encoded);\n        } else if (payloadID == 3) {\n            BridgeStructs.TransferWithPayload memory t = parseTransferWithPayload(encoded);\n            transfer.payloadID = 3;\n            transfer.amount = t.amount;\n            transfer.tokenAddress = t.tokenAddress;\n            transfer.tokenChain = t.tokenChain;\n            transfer.to = t.to;\n            transfer.toChain = t.toChain;\n            // Type 3 payloads don't have fees.\n            transfer.fee = 0;\n        } else {\n            revert(\"Invalid payload id\");\n        }\n    }\n\n    function bytes32ToString(bytes32 input) internal pure returns (string memory) {\n        uint256 i;\n        while (i < 32 && input[i] != 0) {\n            i++;\n        }\n        bytes memory array = new bytes(i);\n        for (uint c = 0; c < i; c++) {\n            array[c] = input[c];\n        }\n        return string(array);\n    }\n\n    // we need to accept ETH sends to unwrap WETH\n    receive() external payable {}\n}\n",
  "sourcePath": "/Users/kristofferhovlandberg/github/bridges/wormhole/ethereum/contracts/bridge/Bridge.sol",
  "compiler": {
    "name": "solc",
    "version": "0.8.4+commit.c7e474f2.Emscripten.clang"
  },
  "schemaVersion": "3.3.4",
  "updatedAt": "2022-10-10T12:41:31.018Z",
  "devdoc": {
    "kind": "dev",
    "methods": {
      "parseRecoverChainId(bytes)": {
        "details": "Parse a recoverChainId (action 3) with minimal validation"
      },
      "submitRecoverChainId(bytes)": {
        "details": "Updates the `chainId` and `evmChainId` on a forked chain via Governance VAA/VM"
      }
    },
    "version": 1
  },
  "userdoc": {
    "kind": "user",
    "methods": {},
    "version": 1
  }
}