{
  "address": "0x551B5C9E16eD6E042ee17E911752c826Bc8C8B6e",
  "abi": [
    {
      "anonymous": false,
      "inputs": [
        {
          "indexed": true,
          "internalType": "bytes32",
          "name": "transactionId",
          "type": "bytes32"
        },
        {
          "indexed": false,
          "internalType": "address",
          "name": "receivingAssetId",
          "type": "address"
        },
        {
          "indexed": false,
          "internalType": "address",
          "name": "receiver",
          "type": "address"
        },
        {
          "indexed": false,
          "internalType": "uint256",
          "name": "amount",
          "type": "uint256"
        },
        {
          "indexed": false,
          "internalType": "uint256",
          "name": "timestamp",
          "type": "uint256"
        }
      ],
      "name": "LiFiTransferCompleted",
      "type": "event"
    },
    {
      "anonymous": false,
      "inputs": [
        {
          "indexed": true,
          "internalType": "bytes32",
          "name": "transactionId",
          "type": "bytes32"
        },
        {
          "indexed": false,
          "internalType": "string",
          "name": "integrator",
          "type": "string"
        },
        {
          "indexed": false,
          "internalType": "address",
          "name": "referrer",
          "type": "address"
        },
        {
          "indexed": false,
          "internalType": "address",
          "name": "sendingAssetId",
          "type": "address"
        },
        {
          "indexed": false,
          "internalType": "address",
          "name": "receivingAssetId",
          "type": "address"
        },
        {
          "indexed": false,
          "internalType": "address",
          "name": "receiver",
          "type": "address"
        },
        {
          "indexed": false,
          "internalType": "uint256",
          "name": "amount",
          "type": "uint256"
        },
        {
          "indexed": false,
          "internalType": "uint256",
          "name": "destinationChainId",
          "type": "uint256"
        },
        {
          "indexed": false,
          "internalType": "uint256",
          "name": "timestamp",
          "type": "uint256"
        }
      ],
      "name": "LiFiTransferStarted",
      "type": "event"
    },
    {
      "anonymous": false,
      "inputs": [
        {
          "indexed": true,
          "internalType": "bytes32",
          "name": "lifiTransactionId",
          "type": "bytes32"
        },
        {
          "indexed": false,
          "internalType": "bytes32",
          "name": "nxtpTransactionId",
          "type": "bytes32"
        },
        {
          "components": [
            {
              "internalType": "address",
              "name": "receivingChainTxManagerAddress",
              "type": "address"
            },
            {
              "internalType": "address",
              "name": "user",
              "type": "address"
            },
            {
              "internalType": "address",
              "name": "router",
              "type": "address"
            },
            {
              "internalType": "address",
              "name": "initiator",
              "type": "address"
            },
            {
              "internalType": "address",
              "name": "sendingAssetId",
              "type": "address"
            },
            {
              "internalType": "address",
              "name": "receivingAssetId",
              "type": "address"
            },
            {
              "internalType": "address",
              "name": "sendingChainFallback",
              "type": "address"
            },
            {
              "internalType": "address",
              "name": "receivingAddress",
              "type": "address"
            },
            {
              "internalType": "address",
              "name": "callTo",
              "type": "address"
            },
            {
              "internalType": "bytes32",
              "name": "callDataHash",
              "type": "bytes32"
            },
            {
              "internalType": "bytes32",
              "name": "transactionId",
              "type": "bytes32"
            },
            {
              "internalType": "uint256",
              "name": "sendingChainId",
              "type": "uint256"
            },
            {
              "internalType": "uint256",
              "name": "receivingChainId",
              "type": "uint256"
            },
            {
              "internalType": "uint256",
              "name": "amount",
              "type": "uint256"
            },
            {
              "internalType": "uint256",
              "name": "expiry",
              "type": "uint256"
            },
            {
              "internalType": "uint256",
              "name": "preparedBlockNumber",
              "type": "uint256"
            }
          ],
          "indexed": false,
          "internalType": "struct ITransactionManager.TransactionData",
          "name": "txData",
          "type": "tuple"
        }
      ],
      "name": "NXTPBridgeStarted",
      "type": "event"
    },
    {
      "inputs": [
        {
          "components": [
            {
              "internalType": "bytes32",
              "name": "transactionId",
              "type": "bytes32"
            },
            {
              "internalType": "string",
              "name": "integrator",
              "type": "string"
            },
            {
              "internalType": "address",
              "name": "referrer",
              "type": "address"
            },
            {
              "internalType": "address",
              "name": "sendingAssetId",
              "type": "address"
            },
            {
              "internalType": "address",
              "name": "receivingAssetId",
              "type": "address"
            },
            {
              "internalType": "address",
              "name": "receiver",
              "type": "address"
            },
            {
              "internalType": "uint256",
              "name": "destinationChainId",
              "type": "uint256"
            },
            {
              "internalType": "uint256",
              "name": "amount",
              "type": "uint256"
            }
          ],
          "internalType": "struct ILiFi.LiFiData",
          "name": "_lifiData",
          "type": "tuple"
        },
        {
          "internalType": "address",
          "name": "assetId",
          "type": "address"
        },
        {
          "internalType": "address",
          "name": "receiver",
          "type": "address"
        },
        {
          "internalType": "uint256",
          "name": "amount",
          "type": "uint256"
        }
      ],
      "name": "completeBridgeTokensViaNXTP",
      "outputs": [],
      "stateMutability": "payable",
      "type": "function"
    },
    {
      "inputs": [],
      "name": "getNXTPTransactionManager",
      "outputs": [
        {
          "internalType": "address",
          "name": "",
          "type": "address"
        }
      ],
      "stateMutability": "view",
      "type": "function"
    },
    {
      "inputs": [
        {
          "components": [
            {
              "internalType": "bytes32",
              "name": "transactionId",
              "type": "bytes32"
            },
            {
              "internalType": "string",
              "name": "integrator",
              "type": "string"
            },
            {
              "internalType": "address",
              "name": "referrer",
              "type": "address"
            },
            {
              "internalType": "address",
              "name": "sendingAssetId",
              "type": "address"
            },
            {
              "internalType": "address",
              "name": "receivingAssetId",
              "type": "address"
            },
            {
              "internalType": "address",
              "name": "receiver",
              "type": "address"
            },
            {
              "internalType": "uint256",
              "name": "destinationChainId",
              "type": "uint256"
            },
            {
              "internalType": "uint256",
              "name": "amount",
              "type": "uint256"
            }
          ],
          "internalType": "struct ILiFi.LiFiData",
          "name": "_lifiData",
          "type": "tuple"
        },
        {
          "components": [
            {
              "components": [
                {
                  "internalType": "address",
                  "name": "receivingChainTxManagerAddress",
                  "type": "address"
                },
                {
                  "internalType": "address",
                  "name": "user",
                  "type": "address"
                },
                {
                  "internalType": "address",
                  "name": "router",
                  "type": "address"
                },
                {
                  "internalType": "address",
                  "name": "initiator",
                  "type": "address"
                },
                {
                  "internalType": "address",
                  "name": "sendingAssetId",
                  "type": "address"
                },
                {
                  "internalType": "address",
                  "name": "receivingAssetId",
                  "type": "address"
                },
                {
                  "internalType": "address",
                  "name": "sendingChainFallback",
                  "type": "address"
                },
                {
                  "internalType": "address",
                  "name": "receivingAddress",
                  "type": "address"
                },
                {
                  "internalType": "address",
                  "name": "callTo",
                  "type": "address"
                },
                {
                  "internalType": "uint256",
                  "name": "sendingChainId",
                  "type": "uint256"
                },
                {
                  "internalType": "uint256",
                  "name": "receivingChainId",
                  "type": "uint256"
                },
                {
                  "internalType": "bytes32",
                  "name": "callDataHash",
                  "type": "bytes32"
                },
                {
                  "internalType": "bytes32",
                  "name": "transactionId",
                  "type": "bytes32"
                }
              ],
              "internalType": "struct ITransactionManager.InvariantTransactionData",
              "name": "invariantData",
              "type": "tuple"
            },
            {
              "internalType": "uint256",
              "name": "amount",
              "type": "uint256"
            },
            {
              "internalType": "uint256",
              "name": "expiry",
              "type": "uint256"
            },
            {
              "internalType": "bytes",
              "name": "encryptedCallData",
              "type": "bytes"
            },
            {
              "internalType": "bytes",
              "name": "encodedBid",
              "type": "bytes"
            },
            {
              "internalType": "bytes",
              "name": "bidSignature",
              "type": "bytes"
            },
            {
              "internalType": "bytes",
              "name": "encodedMeta",
              "type": "bytes"
            }
          ],
          "internalType": "struct ITransactionManager.PrepareArgs",
          "name": "_nxtpData",
          "type": "tuple"
        }
      ],
      "name": "startBridgeTokensViaNXTP",
      "outputs": [],
      "stateMutability": "payable",
      "type": "function"
    },
    {
      "inputs": [
        {
          "components": [
            {
              "internalType": "bytes32",
              "name": "transactionId",
              "type": "bytes32"
            },
            {
              "internalType": "string",
              "name": "integrator",
              "type": "string"
            },
            {
              "internalType": "address",
              "name": "referrer",
              "type": "address"
            },
            {
              "internalType": "address",
              "name": "sendingAssetId",
              "type": "address"
            },
            {
              "internalType": "address",
              "name": "receivingAssetId",
              "type": "address"
            },
            {
              "internalType": "address",
              "name": "receiver",
              "type": "address"
            },
            {
              "internalType": "uint256",
              "name": "destinationChainId",
              "type": "uint256"
            },
            {
              "internalType": "uint256",
              "name": "amount",
              "type": "uint256"
            }
          ],
          "internalType": "struct ILiFi.LiFiData",
          "name": "_lifiData",
          "type": "tuple"
        },
        {
          "components": [
            {
              "internalType": "address",
              "name": "callTo",
              "type": "address"
            },
            {
              "internalType": "address",
              "name": "approveTo",
              "type": "address"
            },
            {
              "internalType": "address",
              "name": "sendingAssetId",
              "type": "address"
            },
            {
              "internalType": "address",
              "name": "receivingAssetId",
              "type": "address"
            },
            {
              "internalType": "uint256",
              "name": "fromAmount",
              "type": "uint256"
            },
            {
              "internalType": "bytes",
              "name": "callData",
              "type": "bytes"
            }
          ],
          "internalType": "struct LibSwap.SwapData[]",
          "name": "_swapData",
          "type": "tuple[]"
        },
        {
          "internalType": "address",
          "name": "finalAssetId",
          "type": "address"
        },
        {
          "internalType": "address",
          "name": "receiver",
          "type": "address"
        }
      ],
      "name": "swapAndCompleteBridgeTokensViaNXTP",
      "outputs": [],
      "stateMutability": "payable",
      "type": "function"
    },
    {
      "inputs": [
        {
          "components": [
            {
              "internalType": "bytes32",
              "name": "transactionId",
              "type": "bytes32"
            },
            {
              "internalType": "string",
              "name": "integrator",
              "type": "string"
            },
            {
              "internalType": "address",
              "name": "referrer",
              "type": "address"
            },
            {
              "internalType": "address",
              "name": "sendingAssetId",
              "type": "address"
            },
            {
              "internalType": "address",
              "name": "receivingAssetId",
              "type": "address"
            },
            {
              "internalType": "address",
              "name": "receiver",
              "type": "address"
            },
            {
              "internalType": "uint256",
              "name": "destinationChainId",
              "type": "uint256"
            },
            {
              "internalType": "uint256",
              "name": "amount",
              "type": "uint256"
            }
          ],
          "internalType": "struct ILiFi.LiFiData",
          "name": "_lifiData",
          "type": "tuple"
        },
        {
          "components": [
            {
              "internalType": "address",
              "name": "callTo",
              "type": "address"
            },
            {
              "internalType": "address",
              "name": "approveTo",
              "type": "address"
            },
            {
              "internalType": "address",
              "name": "sendingAssetId",
              "type": "address"
            },
            {
              "internalType": "address",
              "name": "receivingAssetId",
              "type": "address"
            },
            {
              "internalType": "uint256",
              "name": "fromAmount",
              "type": "uint256"
            },
            {
              "internalType": "bytes",
              "name": "callData",
              "type": "bytes"
            }
          ],
          "internalType": "struct LibSwap.SwapData[]",
          "name": "_swapData",
          "type": "tuple[]"
        },
        {
          "components": [
            {
              "components": [
                {
                  "internalType": "address",
                  "name": "receivingChainTxManagerAddress",
                  "type": "address"
                },
                {
                  "internalType": "address",
                  "name": "user",
                  "type": "address"
                },
                {
                  "internalType": "address",
                  "name": "router",
                  "type": "address"
                },
                {
                  "internalType": "address",
                  "name": "initiator",
                  "type": "address"
                },
                {
                  "internalType": "address",
                  "name": "sendingAssetId",
                  "type": "address"
                },
                {
                  "internalType": "address",
                  "name": "receivingAssetId",
                  "type": "address"
                },
                {
                  "internalType": "address",
                  "name": "sendingChainFallback",
                  "type": "address"
                },
                {
                  "internalType": "address",
                  "name": "receivingAddress",
                  "type": "address"
                },
                {
                  "internalType": "address",
                  "name": "callTo",
                  "type": "address"
                },
                {
                  "internalType": "uint256",
                  "name": "sendingChainId",
                  "type": "uint256"
                },
                {
                  "internalType": "uint256",
                  "name": "receivingChainId",
                  "type": "uint256"
                },
                {
                  "internalType": "bytes32",
                  "name": "callDataHash",
                  "type": "bytes32"
                },
                {
                  "internalType": "bytes32",
                  "name": "transactionId",
                  "type": "bytes32"
                }
              ],
              "internalType": "struct ITransactionManager.InvariantTransactionData",
              "name": "invariantData",
              "type": "tuple"
            },
            {
              "internalType": "uint256",
              "name": "amount",
              "type": "uint256"
            },
            {
              "internalType": "uint256",
              "name": "expiry",
              "type": "uint256"
            },
            {
              "internalType": "bytes",
              "name": "encryptedCallData",
              "type": "bytes"
            },
            {
              "internalType": "bytes",
              "name": "encodedBid",
              "type": "bytes"
            },
            {
              "internalType": "bytes",
              "name": "bidSignature",
              "type": "bytes"
            },
            {
              "internalType": "bytes",
              "name": "encodedMeta",
              "type": "bytes"
            }
          ],
          "internalType": "struct ITransactionManager.PrepareArgs",
          "name": "_nxtpData",
          "type": "tuple"
        }
      ],
      "name": "swapAndStartBridgeTokensViaNXTP",
      "outputs": [],
      "stateMutability": "payable",
      "type": "function"
    }
  ],
  "transactionHash": "0x9ac1c22292e9950825fb7de3f465b1fbf9bcfd7c0db202a8f66c38e9ddac8bc4",
  "args": [],
  "solcInputHash": "0632cc2764f3297423b8d8f36d28ae37",
  "bytecode": "0x608060405234801561001057600080fd5b50612c4c806100206000396000f3fe60806040526004361061004a5760003560e01c806328225f0c1461004f5780632a7a70421461006b5780634f7c96b5146100875780637d7aecd3146100b2578063cf76d313146100ce575b600080fd5b6100696004803603810190610064919061189d565b6100ea565b005b610085600480360381019061008091906119c4565b6101e2565b005b34801561009357600080fd5b5061009c61033a565b6040516100a991906121da565b60405180910390f35b6100cc60048036038101906100c79190611a70565b610366565b005b6100e860048036038101906100e39190611920565b6104f4565b005b6100f3836105d8565b1561013f5780341461013a576040517f08c379a000000000000000000000000000000000000000000000000000000000815260040161013190612503565b60405180910390fd5b61018f565b60003414610182576040517f08c379a000000000000000000000000000000000000000000000000000000000815260040161017990612403565b60405180910390fd5b61018e83333084610610565b5b61019a838383610622565b83600001517fb8c86983f929c6b770461983d1bbde1870408120f07123e9c12d49f35a0b4c4b848484426040516101d49493929190612255565b60405180910390a250505050565b60008160000160800160208101906101fa91906117fa565b905060006102078261064f565b905060005b858590508160ff1610156102625761024f876000015187878460ff16818110610238576102376128f1565b5b905060200281019061024a91906125c8565b6106f5565b808061025a90612898565b91505061020c565b50826101a00135816102738461064f565b61027d9190612792565b10156102be576040517f08c379a00000000000000000000000000000000000000000000000000000000081526004016102b590612483565b60405180910390fd5b6102cc86600001518461091e565b85600001517f3b254a352757de129783dc1fcdea65d20e49fc091f974551e1dcb4afbf1fdc468760200151886040015189606001518a608001518b60a001518c60e001518d60c001514260405161032a98979695949392919061237e565b60405180910390a2505050505050565b60008060000160009054906101000a900473ffffffffffffffffffffffffffffffffffffffff16905090565b600081600001608001602081019061037e91906117fa565b9050600073ffffffffffffffffffffffffffffffffffffffff168173ffffffffffffffffffffffffffffffffffffffff16141561040157816101a0013534146103fc576040517f08c379a00000000000000000000000000000000000000000000000000000000081526004016103f390612483565b60405180910390fd5b61047b565b600061040c8261064f565b905061041f823330866101a00135610610565b826101a001358161042f8461064f565b6104399190612792565b14610479576040517f08c379a000000000000000000000000000000000000000000000000000000000815260040161047090612483565b60405180910390fd5b505b61048983600001518361091e565b82600001517f3b254a352757de129783dc1fcdea65d20e49fc091f974551e1dcb4afbf1fdc4684602001518560400151866060015187608001518860a001518960e001518a60c00151426040516104e798979695949392919061237e565b60405180910390a2505050565b60006104ff8361064f565b905060005b858590508160ff16101561055a57610547876000015187878460ff168181106105305761052f6128f1565b5b905060200281019061054291906125c8565b6106f5565b808061055290612898565b915050610504565b5060006105668461064f565b905060008282111561058c57828261057e9190612792565b905061058b858583610622565b5b87600001517fb8c86983f929c6b770461983d1bbde1870408120f07123e9c12d49f35a0b4c4b868684426040516105c69493929190612255565b60405180910390a25050505050505050565b60008073ffffffffffffffffffffffffffffffffffffffff168273ffffffffffffffffffffffffffffffffffffffff16149050919050565b61061c84848484610a81565b50505050565b61062b836105d8565b61063f5761063a838383610b0a565b61064a565b6106498282610b1a565b5b505050565b600061065a826105d8565b6106ec578173ffffffffffffffffffffffffffffffffffffffff166370a08231306040518263ffffffff1660e01b815260040161069791906121da565b60206040518083038186803b1580156106af57600080fd5b505afa1580156106c3573d6000803e3d6000fd5b505050506040513d601f19601f820116820180604052508101906106e79190611b16565b6106ee565b475b9050919050565b600081608001359050600061071b83606001602081019061071691906117fa565b61064f565b9050600083604001602081019061073291906117fa565b905061073d816105d8565b15801561075257508261074f8261064f565b14155b156107765761077584604001602081019061076d91906117fa565b333086610610565b5b6107938185602001602081019061078d91906117fa565b85610bcb565b6000808560000160208101906107a991906117fa565b73ffffffffffffffffffffffffffffffffffffffff1634878060a001906107d09190612565565b6040516107de929190612195565b60006040518083038185875af1925050503d806000811461081b576040519150601f19603f3d011682016040523d82523d6000602084013e610820565b606091505b50915091508161087457600061083582610c95565b9050806040517f08c379a000000000000000000000000000000000000000000000000000000000815260040161086b919061235c565b60405180910390fd5b8361089087606001602081019061088b91906117fa565b61064f565b61089a9190612792565b93507f7bfdfdb5e3a3776976e53cb0607060f54c5312701c8cba1155cc4d5394440b38878760000160208101906108d191906117fa565b8860400160208101906108e491906117fa565b8960600160208101906108f791906117fa565b89894260405161090d97969594939291906122c3565b60405180910390a150505050505050565b600081600001608001602081019061093691906117fa565b905061096c816000800160009054906101000a900473ffffffffffffffffffffffffffffffffffffffff16846101a00135610bcb565b6000610977826105d8565b610982576000610984565b345b905060008060000160009054906101000a900473ffffffffffffffffffffffffffffffffffffffff1673ffffffffffffffffffffffffffffffffffffffff1663d945937283866040518363ffffffff1660e01b81526004016109e69190612543565b610200604051808303818588803b158015610a0057600080fd5b505af1158015610a14573d6000803e3d6000fd5b50505050506040513d601f19601f82011682018060405250810190610a399190611ae8565b9050847ff41c17e1ecd5e0c8547f6e40103b41a4a94721c4b4f1445206a69a58e563aa3582610140015183604051610a72929190612332565b60405180910390a25050505050565b610b04846323b872dd60e01b858585604051602401610aa29392919061221e565b604051602081830303815290604052907bffffffffffffffffffffffffffffffffffffffffffffffffffffffff19166020820180517bffffffffffffffffffffffffffffffffffffffffffffffffffffffff8381831617835250505050610d21565b50505050565b610b15838383610de8565b505050565b60008273ffffffffffffffffffffffffffffffffffffffff1682604051610b40906121c5565b60006040518083038185875af1925050503d8060008114610b7d576040519150601f19603f3d011682016040523d82523d6000602084013e610b82565b606091505b5050905080610bc6576040517f08c379a0000000000000000000000000000000000000000000000000000000008152600401610bbd90612423565b60405180910390fd5b505050565b610bd4836105d8565b15610bde57610c90565b60008373ffffffffffffffffffffffffffffffffffffffff1663dd62ed3e30856040518363ffffffff1660e01b8152600401610c1b9291906121f5565b60206040518083038186803b158015610c3357600080fd5b505afa158015610c47573d6000803e3d6000fd5b505050506040513d601f19601f82011682018060405250810190610c6b9190611b16565b90506000811115610c8357610c8284846000610e6e565b5b610c8e848484610fcc565b505b505050565b6060604482511015610cde576040518060400160405280601d81526020017f5472616e73616374696f6e2072657665727465642073696c656e746c790000008152509050610d1c565b6000610d026004808551610cf29190612792565b856110ed9092919063ffffffff16565b905080806020019051810190610d189190611854565b9150505b919050565b6000610d83826040518060400160405280602081526020017f5361666545524332303a206c6f772d6c6576656c2063616c6c206661696c65648152508573ffffffffffffffffffffffffffffffffffffffff1661120b9092919063ffffffff16565b9050600081511115610de35780806020019051810190610da39190611827565b610de2576040517f08c379a0000000000000000000000000000000000000000000000000000000008152600401610dd9906124e3565b60405180910390fd5b5b505050565b610e698363a9059cbb60e01b8484604051602401610e0792919061229a565b604051602081830303815290604052907bffffffffffffffffffffffffffffffffffffffffffffffffffffffff19166020820180517bffffffffffffffffffffffffffffffffffffffffffffffffffffffff8381831617835250505050610d21565b505050565b6000811480610f07575060008373ffffffffffffffffffffffffffffffffffffffff1663dd62ed3e30856040518363ffffffff1660e01b8152600401610eb59291906121f5565b60206040518083038186803b158015610ecd57600080fd5b505afa158015610ee1573d6000803e3d6000fd5b505050506040513d601f19601f82011682018060405250810190610f059190611b16565b145b610f46576040517f08c379a0000000000000000000000000000000000000000000000000000000008152600401610f3d90612523565b60405180910390fd5b610fc78363095ea7b360e01b8484604051602401610f6592919061229a565b604051602081830303815290604052907bffffffffffffffffffffffffffffffffffffffffffffffffffffffff19166020820180517bffffffffffffffffffffffffffffffffffffffffffffffffffffffff8381831617835250505050610d21565b505050565b6000818473ffffffffffffffffffffffffffffffffffffffff1663dd62ed3e30866040518363ffffffff1660e01b815260040161100a9291906121f5565b60206040518083038186803b15801561102257600080fd5b505afa158015611036573d6000803e3d6000fd5b505050506040513d601f19601f8201168201806040525081019061105a9190611b16565b611064919061273c565b90506110e78463095ea7b360e01b858460405160240161108592919061229a565b604051602081830303815290604052907bffffffffffffffffffffffffffffffffffffffffffffffffffffffff19166020820180517bffffffffffffffffffffffffffffffffffffffffffffffffffffffff8381831617835250505050610d21565b50505050565b606081601f836110fd919061273c565b101561113e576040517f08c379a000000000000000000000000000000000000000000000000000000000815260040161113590612463565b60405180910390fd5b818361114a919061273c565b8451101561118d576040517f08c379a0000000000000000000000000000000000000000000000000000000008152600401611184906124c3565b60405180910390fd5b60608215600081146111ae57604051915060008252602082016040526111ff565b6040519150601f8416801560200281840101858101878315602002848b0101015b818310156111ec57805183526020830192506020810190506111cf565b50868552601f19601f8301166040525050505b50809150509392505050565b606061121a8484600085611223565b90509392505050565b606082471015611268576040517f08c379a000000000000000000000000000000000000000000000000000000000815260040161125f90612443565b60405180910390fd5b61127185611337565b6112b0576040517f08c379a00000000000000000000000000000000000000000000000000000000081526004016112a7906124a3565b60405180910390fd5b6000808673ffffffffffffffffffffffffffffffffffffffff1685876040516112d991906121ae565b60006040518083038185875af1925050503d8060008114611316576040519150601f19603f3d011682016040523d82523d6000602084013e61131b565b606091505b509150915061132b82828661134a565b92505050949350505050565b600080823b905060008111915050919050565b6060831561135a578290506113aa565b60008351111561136d5782518084602001fd5b816040517f08c379a00000000000000000000000000000000000000000000000000000000081526004016113a1919061235c565b60405180910390fd5b9392505050565b60006113c46113bf84612615565b6125f0565b9050828152602081018484840111156113e0576113df612986565b5b6113eb848285612825565b509392505050565b600061140661140184612615565b6125f0565b90508281526020810184848401111561142257611421612986565b5b61142d848285612834565b509392505050565b60008135905061144481612bba565b92915050565b60008151905061145981612bba565b92915050565b60008083601f84011261147557611474612959565b5b8235905067ffffffffffffffff81111561149257611491612954565b5b6020830191508360208202830111156114ae576114ad61297c565b5b9250929050565b6000815190506114c481612bd1565b92915050565b6000813590506114d981612be8565b92915050565b6000815190506114ee81612be8565b92915050565b600082601f83011261150957611508612959565b5b81356115198482602086016113b1565b91505092915050565b600082601f83011261153757611536612959565b5b81516115478482602086016113f3565b91505092915050565b6000610100828403121561156757611566612968565b5b6115726101006125f0565b90506000611582848285016114ca565b600083015250602082013567ffffffffffffffff8111156115a6576115a5612977565b5b6115b2848285016114f4565b60208301525060406115c684828501611435565b60408301525060606115da84828501611435565b60608301525060806115ee84828501611435565b60808301525060a061160284828501611435565b60a08301525060c0611616848285016117d0565b60c08301525060e061162a848285016117d0565b60e08301525092915050565b6000610260828403121561164d5761164c612963565b5b81905092915050565b6000610200828403121561166d5761166c612968565b5b6116786102006125f0565b905060006116888482850161144a565b600083015250602061169c8482850161144a565b60208301525060406116b08482850161144a565b60408301525060606116c48482850161144a565b60608301525060806116d88482850161144a565b60808301525060a06116ec8482850161144a565b60a08301525060c06117008482850161144a565b60c08301525060e06117148482850161144a565b60e0830152506101006117298482850161144a565b6101008301525061012061173f848285016114df565b61012083015250610140611755848285016114df565b6101408301525061016061176b848285016117e5565b61016083015250610180611781848285016117e5565b610180830152506101a0611797848285016117e5565b6101a0830152506101c06117ad848285016117e5565b6101c0830152506101e06117c3848285016117e5565b6101e08301525092915050565b6000813590506117df81612bff565b92915050565b6000815190506117f481612bff565b92915050565b6000602082840312156118105761180f612995565b5b600061181e84828501611435565b91505092915050565b60006020828403121561183d5761183c612995565b5b600061184b848285016114b5565b91505092915050565b60006020828403121561186a57611869612995565b5b600082015167ffffffffffffffff8111156118885761188761298b565b5b61189484828501611522565b91505092915050565b600080600080608085870312156118b7576118b6612995565b5b600085013567ffffffffffffffff8111156118d5576118d461298b565b5b6118e187828801611550565b94505060206118f287828801611435565b935050604061190387828801611435565b9250506060611914878288016117d0565b91505092959194509250565b60008060008060006080868803121561193c5761193b612995565b5b600086013567ffffffffffffffff81111561195a5761195961298b565b5b61196688828901611550565b955050602086013567ffffffffffffffff8111156119875761198661298b565b5b6119938882890161145f565b945094505060406119a688828901611435565b92505060606119b788828901611435565b9150509295509295909350565b600080600080606085870312156119de576119dd612995565b5b600085013567ffffffffffffffff8111156119fc576119fb61298b565b5b611a0887828801611550565b945050602085013567ffffffffffffffff811115611a2957611a2861298b565b5b611a358782880161145f565b9350935050604085013567ffffffffffffffff811115611a5857611a5761298b565b5b611a6487828801611636565b91505092959194509250565b60008060408385031215611a8757611a86612995565b5b600083013567ffffffffffffffff811115611aa557611aa461298b565b5b611ab185828601611550565b925050602083013567ffffffffffffffff811115611ad257611ad161298b565b5b611ade85828601611636565b9150509250929050565b60006102008284031215611aff57611afe612995565b5b6000611b0d84828501611656565b91505092915050565b600060208284031215611b2c57611b2b612995565b5b6000611b3a848285016117e5565b91505092915050565b611b4c816127c6565b82525050565b611b5b816127c6565b82525050565b611b6a816127e4565b82525050565b611b79816127e4565b82525050565b6000611b8b838561265c565b9350611b98838584612825565b611ba18361299a565b840190509392505050565b6000611bb8838561266d565b9350611bc5838584612825565b82840190509392505050565b6000611bdc82612646565b611be6818561266d565b9350611bf6818560208601612834565b80840191505092915050565b6000611c0d82612651565b611c178185612678565b9350611c27818560208601612834565b611c308161299a565b840191505092915050565b6000611c48600c83612678565b9150611c53826129ab565b602082019050919050565b6000611c6b600883612678565b9150611c76826129d4565b602082019050919050565b6000611c8e602683612678565b9150611c99826129fd565b604082019050919050565b6000611cb1600e83612678565b9150611cbc82612a4c565b602082019050919050565b6000611cd4601283612678565b9150611cdf82612a75565b602082019050919050565b6000611cf760008361266d565b9150611d0282612a9e565b600082019050919050565b6000611d1a601d83612678565b9150611d2582612aa1565b602082019050919050565b6000611d3d601183612678565b9150611d4882612aca565b602082019050919050565b6000611d60602a83612678565b9150611d6b82612af3565b604082019050919050565b6000611d83601283612678565b9150611d8e82612b42565b602082019050919050565b6000611da6603683612678565b9150611db182612b6b565b604082019050919050565b6101a08201611dce6000830183612689565b611ddb6000850182611b43565b50611de96020830183612689565b611df66020850182611b43565b50611e046040830183612689565b611e116040850182611b43565b50611e1f6060830183612689565b611e2c6060850182611b43565b50611e3a6080830183612689565b611e476080850182611b43565b50611e5560a0830183612689565b611e6260a0850182611b43565b50611e7060c0830183612689565b611e7d60c0850182611b43565b50611e8b60e0830183612689565b611e9860e0850182611b43565b50611ea7610100830183612689565b611eb5610100850182611b43565b50611ec4610120830183612725565b611ed2610120850182612177565b50611ee1610140830183612725565b611eef610140850182612177565b50611efe6101608301836126a0565b611f0c610160850182611b61565b50611f1b6101808301836126a0565b611f29610180850182611b61565b50505050565b60006102608301611f43600084018461271a565b611f506000860182611dbc565b50611f5f6101a0840184612725565b611f6d6101a0860182612177565b50611f7c6101c0840184612725565b611f8a6101c0860182612177565b50611f996101e08401846126b7565b8583036101e0870152611fad838284611b7f565b92505050611fbf6102008401846126b7565b858303610200870152611fd3838284611b7f565b92505050611fe56102208401846126b7565b858303610220870152611ff9838284611b7f565b9250505061200b6102408401846126b7565b85830361024087015261201f838284611b7f565b925050508091505092915050565b610200820160008201516120446000850182611b43565b5060208201516120576020850182611b43565b50604082015161206a6040850182611b43565b50606082015161207d6060850182611b43565b5060808201516120906080850182611b43565b5060a08201516120a360a0850182611b43565b5060c08201516120b660c0850182611b43565b5060e08201516120c960e0850182611b43565b506101008201516120de610100850182611b43565b506101208201516120f3610120850182611b61565b50610140820151612108610140850182611b61565b5061016082015161211d610160850182612177565b50610180820151612132610180850182612177565b506101a08201516121476101a0850182612177565b506101c082015161215c6101c0850182612177565b506101e08201516121716101e0850182612177565b50505050565b6121808161280e565b82525050565b61218f8161280e565b82525050565b60006121a2828486611bac565b91508190509392505050565b60006121ba8284611bd1565b915081905092915050565b60006121d082611cea565b9150819050919050565b60006020820190506121ef6000830184611b52565b92915050565b600060408201905061220a6000830185611b52565b6122176020830184611b52565b9392505050565b60006060820190506122336000830186611b52565b6122406020830185611b52565b61224d6040830184612186565b949350505050565b600060808201905061226a6000830187611b52565b6122776020830186611b52565b6122846040830185612186565b6122916060830184612186565b95945050505050565b60006040820190506122af6000830185611b52565b6122bc6020830184612186565b9392505050565b600060e0820190506122d8600083018a611b70565b6122e56020830189611b52565b6122f26040830188611b52565b6122ff6060830187611b52565b61230c6080830186612186565b61231960a0830185612186565b61232660c0830184612186565b98975050505050505050565b6000610220820190506123486000830185611b70565b612355602083018461202d565b9392505050565b600060208201905081810360008301526123768184611c02565b905092915050565b6000610100820190508181036000830152612399818b611c02565b90506123a8602083018a611b52565b6123b56040830189611b52565b6123c26060830188611b52565b6123cf6080830187611b52565b6123dc60a0830186612186565b6123e960c0830185612186565b6123f660e0830184612186565b9998505050505050505050565b6000602082019050818103600083015261241c81611c3b565b9050919050565b6000602082019050818103600083015261243c81611c5e565b9050919050565b6000602082019050818103600083015261245c81611c81565b9050919050565b6000602082019050818103600083015261247c81611ca4565b9050919050565b6000602082019050818103600083015261249c81611cc7565b9050919050565b600060208201905081810360008301526124bc81611d0d565b9050919050565b600060208201905081810360008301526124dc81611d30565b9050919050565b600060208201905081810360008301526124fc81611d53565b9050919050565b6000602082019050818103600083015261251c81611d76565b9050919050565b6000602082019050818103600083015261253c81611d99565b9050919050565b6000602082019050818103600083015261255d8184611f2f565b905092915050565b600080833560016020038436030381126125825761258161296d565b5b80840192508235915067ffffffffffffffff8211156125a4576125a361295e565b5b6020830192506001820236038313156125c0576125bf612981565b5b509250929050565b60008235600160c0038336030381126125e4576125e361296d565b5b80830191505092915050565b60006125fa61260b565b90506126068282612867565b919050565b6000604051905090565b600067ffffffffffffffff8211156126305761262f612920565b5b6126398261299a565b9050602081019050919050565b600081519050919050565b600081519050919050565b600082825260208201905092915050565b600081905092915050565b600082825260208201905092915050565b60006126986020840184611435565b905092915050565b60006126af60208401846114ca565b905092915050565b600080833560016020038436030381126126d4576126d3612990565b5b83810192508235915060208301925067ffffffffffffffff8211156126fc576126fb61294f565b5b60018202360384131561271257612711612972565b5b509250929050565b600082905092915050565b600061273460208401846117d0565b905092915050565b60006127478261280e565b91506127528361280e565b9250827fffffffffffffffffffffffffffffffffffffffffffffffffffffffffffffffff03821115612787576127866128c2565b5b828201905092915050565b600061279d8261280e565b91506127a88361280e565b9250828210156127bb576127ba6128c2565b5b828203905092915050565b60006127d1826127ee565b9050919050565b60008115159050919050565b6000819050919050565b600073ffffffffffffffffffffffffffffffffffffffff82169050919050565b6000819050919050565b600060ff82169050919050565b82818337600083830152505050565b60005b83811015612852578082015181840152602081019050612837565b83811115612861576000848401525b50505050565b6128708261299a565b810181811067ffffffffffffffff8211171561288f5761288e612920565b5b80604052505050565b60006128a382612818565b915060ff8214156128b7576128b66128c2565b5b600182019050919050565b7f4e487b7100000000000000000000000000000000000000000000000000000000600052601160045260246000fd5b7f4e487b7100000000000000000000000000000000000000000000000000000000600052603260045260246000fd5b7f4e487b7100000000000000000000000000000000000000000000000000000000600052604160045260246000fd5b600080fd5b600080fd5b600080fd5b600080fd5b600080fd5b600080fd5b600080fd5b600080fd5b600080fd5b600080fd5b600080fd5b600080fd5b600080fd5b600080fd5b600080fd5b6000601f19601f8301169050919050565b7f4554485f574954485f4552430000000000000000000000000000000000000000600082015250565b7f23544e413a303238000000000000000000000000000000000000000000000000600082015250565b7f416464726573733a20696e73756666696369656e742062616c616e636520666f60008201527f722063616c6c0000000000000000000000000000000000000000000000000000602082015250565b7f736c6963655f6f766572666c6f77000000000000000000000000000000000000600082015250565b7f4552525f494e56414c49445f414d4f554e540000000000000000000000000000600082015250565b50565b7f416464726573733a2063616c6c20746f206e6f6e2d636f6e7472616374000000600082015250565b7f736c6963655f6f75744f66426f756e6473000000000000000000000000000000600082015250565b7f5361666545524332303a204552433230206f7065726174696f6e20646964206e60008201527f6f74207375636365656400000000000000000000000000000000000000000000602082015250565b7f494e56414c49445f4554485f414d4f554e540000000000000000000000000000600082015250565b7f5361666545524332303a20617070726f76652066726f6d206e6f6e2d7a65726f60008201527f20746f206e6f6e2d7a65726f20616c6c6f77616e636500000000000000000000602082015250565b612bc3816127c6565b8114612bce57600080fd5b50565b612bda816127d8565b8114612be557600080fd5b50565b612bf1816127e4565b8114612bfc57600080fd5b50565b612c088161280e565b8114612c1357600080fd5b5056fea264697066735822122053b383fefef6734dfb55bded8d37e09e886799c623a4d19a7cb7635cdc5ed6db64736f6c63430008070033",
  "devdoc": {
    "kind": "dev",
    "methods": {
      "completeBridgeTokensViaNXTP((bytes32,string,address,address,address,address,uint256,uint256),address,address,uint256)": {
        "params": {
          "_lifiData": "data used purely for tracking and analytics",
          "amount": "number of tokens received",
          "assetId": "token received on the receiving chain",
          "receiver": "address that will receive the tokens"
        }
      },
      "startBridgeTokensViaNXTP((bytes32,string,address,address,address,address,uint256,uint256),((address,address,address,address,address,address,address,address,address,uint256,uint256,bytes32,bytes32),uint256,uint256,bytes,bytes,bytes,bytes))": {
        "params": {
          "_lifiData": "data used purely for tracking and analytics",
          "_nxtpData": "data needed to complete an NXTP cross-chain transaction"
        }
      },
      "swapAndCompleteBridgeTokensViaNXTP((bytes32,string,address,address,address,address,uint256,uint256),(address,address,address,address,uint256,bytes)[],address,address)": {
        "params": {
          "_lifiData": "data used purely for tracking and analytics",
          "_swapData": "array of data needed for swaps",
          "finalAssetId": "token received on the receiving chain",
          "receiver": "address that will receive the tokens"
        }
      },
      "swapAndStartBridgeTokensViaNXTP((bytes32,string,address,address,address,address,uint256,uint256),(address,address,address,address,uint256,bytes)[],((address,address,address,address,address,address,address,address,address,uint256,uint256,bytes32,bytes32),uint256,uint256,bytes,bytes,bytes,bytes))": {
        "params": {
          "_lifiData": "data used purely for tracking and analytics",
          "_nxtpData": "data needed to complete an NXTP cross-chain transaction",
          "_swapData": "array of data needed for swaps"
        }
      }
    },
    "version": 1
  },
  "userdoc": {
    "kind": "user",
    "methods": {
      "completeBridgeTokensViaNXTP((bytes32,string,address,address,address,address,uint256,uint256),address,address,uint256)": {
        "notice": "Completes a cross-chain transaction on the receiving chain using the NXTP protocol."
      },
      "getNXTPTransactionManager()": {
        "notice": "show the NXTP transaction manager contract address"
      },
      "startBridgeTokensViaNXTP((bytes32,string,address,address,address,address,uint256,uint256),((address,address,address,address,address,address,address,address,address,uint256,uint256,bytes32,bytes32),uint256,uint256,bytes,bytes,bytes,bytes))": {
        "notice": "This function starts a cross-chain transaction using the NXTP protocol"
      },
      "swapAndCompleteBridgeTokensViaNXTP((bytes32,string,address,address,address,address,uint256,uint256),(address,address,address,address,uint256,bytes)[],address,address)": {
        "notice": "Performs a swap before completing a cross-chain transaction         on the receiving chain using the NXTP protocol."
      },
      "swapAndStartBridgeTokensViaNXTP((bytes32,string,address,address,address,address,uint256,uint256),(address,address,address,address,uint256,bytes)[],((address,address,address,address,address,address,address,address,address,uint256,uint256,bytes32,bytes32),uint256,uint256,bytes,bytes,bytes,bytes))": {
        "notice": "This function performs a swap or multiple swaps and then starts a cross-chain transaction         using the NXTP protocol."
      }
    },
    "version": 1
  },
  "storageLayout": {
    "storage": [
      {
        "astId": 1562,
        "contract": "src/Facets/NXTPFacet.sol:NXTPFacet",
        "label": "s",
        "offset": 0,
        "slot": "0",
        "type": "t_struct(AppStorage)2406_storage"
      }
    ],
    "types": {
      "t_address": {
        "encoding": "inplace",
        "label": "address",
        "numberOfBytes": "20"
      },
      "t_contract(ITransactionManager)2389": {
        "encoding": "inplace",
        "label": "contract ITransactionManager",
        "numberOfBytes": "20"
      },
      "t_mapping(t_string_memory_ptr,t_struct(BridgeConfig)2004_storage)": {
        "encoding": "mapping",
        "key": "t_string_memory_ptr",
        "label": "mapping(string => struct IHopBridge.BridgeConfig)",
        "numberOfBytes": "32",
        "value": "t_struct(BridgeConfig)2004_storage"
      },
      "t_string_memory_ptr": {
        "encoding": "bytes",
        "label": "string",
        "numberOfBytes": "32"
      },
      "t_struct(AppStorage)2406_storage": {
        "encoding": "inplace",
        "label": "struct AppStorage",
        "members": [
          {
            "astId": 2398,
            "contract": "src/Facets/NXTPFacet.sol:NXTPFacet",
            "label": "nxtpTxManager",
            "offset": 0,
            "slot": "0",
            "type": "t_contract(ITransactionManager)2389"
          },
          {
            "astId": 2403,
            "contract": "src/Facets/NXTPFacet.sol:NXTPFacet",
            "label": "hopBridges",
            "offset": 0,
            "slot": "1",
            "type": "t_mapping(t_string_memory_ptr,t_struct(BridgeConfig)2004_storage)"
          },
          {
            "astId": 2405,
            "contract": "src/Facets/NXTPFacet.sol:NXTPFacet",
            "label": "hopChainId",
            "offset": 0,
            "slot": "2",
            "type": "t_uint256"
          }
        ],
        "numberOfBytes": "96"
      },
      "t_struct(BridgeConfig)2004_storage": {
        "encoding": "inplace",
        "label": "struct IHopBridge.BridgeConfig",
        "members": [
          {
            "astId": 1999,
            "contract": "src/Facets/NXTPFacet.sol:NXTPFacet",
            "label": "token",
            "offset": 0,
            "slot": "0",
            "type": "t_address"
          },
          {
            "astId": 2001,
            "contract": "src/Facets/NXTPFacet.sol:NXTPFacet",
            "label": "hToken",
            "offset": 0,
            "slot": "1",
            "type": "t_address"
          },
          {
            "astId": 2003,
            "contract": "src/Facets/NXTPFacet.sol:NXTPFacet",
            "label": "bridge",
            "offset": 0,
            "slot": "2",
            "type": "t_address"
          }
        ],
        "numberOfBytes": "96"
      },
      "t_uint256": {
        "encoding": "inplace",
        "label": "uint256",
        "numberOfBytes": "32"
      }
    }
  }
}